{
  "address": "0xDc64a140Aa3E981100a9becA4E685f962f0cF6C9",
  "abi": [
    {
      "inputs": [],
      "stateMutability": "nonpayable",
      "type": "constructor"
    },
    {
      "inputs": [
        {
          "internalType": "uint256",
          "name": "_amount0",
          "type": "uint256"
        },
        {
          "internalType": "uint256",
          "name": "_amount1",
          "type": "uint256"
        }
      ],
      "name": "addLiquidity",
      "outputs": [
        {
          "internalType": "uint256",
          "name": "shares",
          "type": "uint256"
        }
      ],
      "stateMutability": "nonpayable",
      "type": "function"
    },
    {
      "inputs": [
        {
          "internalType": "address",
          "name": "",
          "type": "address"
        }
      ],
      "name": "balanceOf",
      "outputs": [
        {
          "internalType": "uint256",
          "name": "",
          "type": "uint256"
        }
      ],
      "stateMutability": "view",
      "type": "function"
    },
    {
      "inputs": [],
      "name": "factory",
      "outputs": [
        {
          "internalType": "address",
          "name": "",
          "type": "address"
        }
      ],
      "stateMutability": "view",
      "type": "function"
    },
    {
      "inputs": [
        {
          "internalType": "address",
          "name": "_token0",
          "type": "address"
        },
        {
          "internalType": "address",
          "name": "_token1",
          "type": "address"
        }
      ],
      "name": "initialize",
      "outputs": [],
      "stateMutability": "nonpayable",
      "type": "function"
    },
    {
      "inputs": [
        {
          "internalType": "uint256",
          "name": "_shares",
          "type": "uint256"
        }
      ],
      "name": "removerLiquidity",
      "outputs": [
        {
          "internalType": "uint256",
          "name": "amount0",
          "type": "uint256"
        },
        {
          "internalType": "uint256",
          "name": "amount1",
          "type": "uint256"
        }
      ],
      "stateMutability": "nonpayable",
      "type": "function"
    },
    {
      "inputs": [],
      "name": "reserve0",
      "outputs": [
        {
          "internalType": "uint256",
          "name": "",
          "type": "uint256"
        }
      ],
      "stateMutability": "view",
      "type": "function"
    },
    {
      "inputs": [],
      "name": "reserve1",
      "outputs": [
        {
          "internalType": "uint256",
          "name": "",
          "type": "uint256"
        }
      ],
      "stateMutability": "view",
      "type": "function"
    },
    {
      "inputs": [
        {
          "internalType": "address",
          "name": "_tokenIn",
          "type": "address"
        },
        {
          "internalType": "uint256",
          "name": "_amountIn",
          "type": "uint256"
        }
      ],
      "name": "swap",
      "outputs": [
        {
          "internalType": "uint256",
          "name": "_amountOut",
          "type": "uint256"
        }
      ],
      "stateMutability": "nonpayable",
      "type": "function"
    },
    {
      "inputs": [],
      "name": "token0",
      "outputs": [
        {
          "internalType": "contract IERC20",
          "name": "",
          "type": "address"
        }
      ],
      "stateMutability": "view",
      "type": "function"
    },
    {
      "inputs": [],
      "name": "token1",
      "outputs": [
        {
          "internalType": "contract IERC20",
          "name": "",
          "type": "address"
        }
      ],
      "stateMutability": "view",
      "type": "function"
    },
    {
      "inputs": [],
      "name": "totalSupply",
      "outputs": [
        {
          "internalType": "uint256",
          "name": "",
          "type": "uint256"
        }
      ],
      "stateMutability": "view",
      "type": "function"
    }
  ],
  "transactionHash": "0x981db843245b965c9cc28203de7dd2729a7509b950b17cbe0db9eec642e6c164",
  "args": [],
  "numDeployments": 1,
  "solcInputHash": "652ff4ac30fe72e8e325d3b80485de4b",
  "bytecode": "0x60a060405234801561001057600080fd5b503373ffffffffffffffffffffffffffffffffffffffff1660808173ffffffffffffffffffffffffffffffffffffffff16815250506080516118d6610067600039600081816102710152610a8d01526118d66000f3fe608060405234801561001057600080fd5b50600436106100a95760003560e01c80635a76f25e116100715780635a76f25e1461015557806370a08231146101735780639cd441da146101a3578063c45a0155146101d3578063d004f0f7146101f1578063d21220a714610221576100a9565b80630dfe1681146100ae57806318160ddd146100cc578063443cb4bc146100ea578063485cc9551461010857806355ab13ef14610124575b600080fd5b6100b661023f565b6040516100c3919061119c565b60405180910390f35b6100d4610263565b6040516100e191906111d0565b60405180910390f35b6100f2610269565b6040516100ff91906111d0565b60405180910390f35b610122600480360381019061011d919061122e565b61026f565b005b61013e6004803603810190610139919061129a565b610382565b60405161014c9291906112c7565b60405180910390f35b61015d6106ba565b60405161016a91906111d0565b60405180910390f35b61018d600480360381019061018891906112f0565b6106c0565b60405161019a91906111d0565b60405180910390f35b6101bd60048036038101906101b8919061131d565b6106d8565b6040516101ca91906111d0565b60405180910390f35b6101db610a8b565b6040516101e8919061136c565b60405180910390f35b61020b60048036038101906102069190611387565b610aaf565b60405161021891906111d0565b60405180910390f35b610229610f69565b604051610236919061119c565b60405180910390f35b60008054906101000a900473ffffffffffffffffffffffffffffffffffffffff1681565b60045481565b60025481565b7f000000000000000000000000000000000000000000000000000000000000000073ffffffffffffffffffffffffffffffffffffffff163373ffffffffffffffffffffffffffffffffffffffff16146102fd576040517f08c379a00000000000000000000000000000000000000000000000000000000081526004016102f490611424565b60405180910390fd5b816000806101000a81548173ffffffffffffffffffffffffffffffffffffffff021916908373ffffffffffffffffffffffffffffffffffffffff16021790555080600160006101000a81548173ffffffffffffffffffffffffffffffffffffffff021916908373ffffffffffffffffffffffffffffffffffffffff1602179055505050565b60008060008060009054906101000a900473ffffffffffffffffffffffffffffffffffffffff1673ffffffffffffffffffffffffffffffffffffffff166370a08231306040518263ffffffff1660e01b81526004016103e1919061136c565b602060405180830381865afa1580156103fe573d6000803e3d6000fd5b505050506040513d601f19601f820116820180604052508101906104229190611459565b90506000600160009054906101000a900473ffffffffffffffffffffffffffffffffffffffff1673ffffffffffffffffffffffffffffffffffffffff166370a08231306040518263ffffffff1660e01b8152600401610481919061136c565b602060405180830381865afa15801561049e573d6000803e3d6000fd5b505050506040513d601f19601f820116820180604052508101906104c29190611459565b905060045482866104d391906114b5565b6104dd9190611526565b935060045481866104ee91906114b5565b6104f89190611526565b925060008411801561050a5750600083115b610549576040517f08c379a0000000000000000000000000000000000000000000000000000000008152600401610540906115a3565b60405180910390fd5b6105533386610f8f565b610573848361056291906115c3565b848361056e91906115c3565b611002565b60008054906101000a900473ffffffffffffffffffffffffffffffffffffffff1673ffffffffffffffffffffffffffffffffffffffff1663a9059cbb33866040518363ffffffff1660e01b81526004016105ce9291906115f7565b6020604051808303816000875af11580156105ed573d6000803e3d6000fd5b505050506040513d601f19601f820116820180604052508101906106119190611658565b50600160009054906101000a900473ffffffffffffffffffffffffffffffffffffffff1673ffffffffffffffffffffffffffffffffffffffff1663a9059cbb33856040518363ffffffff1660e01b815260040161066f9291906115f7565b6020604051808303816000875af115801561068e573d6000803e3d6000fd5b505050506040513d601f19601f820116820180604052508101906106b29190611658565b505050915091565b60035481565b60056020528060005260406000206000915090505481565b60008060009054906101000a900473ffffffffffffffffffffffffffffffffffffffff1673ffffffffffffffffffffffffffffffffffffffff166323b872dd3330866040518463ffffffff1660e01b815260040161073893929190611685565b6020604051808303816000875af1158015610757573d6000803e3d6000fd5b505050506040513d601f19601f8201168201806040525081019061077b9190611658565b50600160009054906101000a900473ffffffffffffffffffffffffffffffffffffffff1673ffffffffffffffffffffffffffffffffffffffff166323b872dd3330856040518463ffffffff1660e01b81526004016107db93929190611685565b6020604051808303816000875af11580156107fa573d6000803e3d6000fd5b505050506040513d601f19601f8201168201806040525081019061081e9190611658565b506000600254118061083257506000600354115b15610894578260035461084591906114b5565b8260025461085391906114b5565b14610893576040517f08c379a000000000000000000000000000000000000000000000000000000000815260040161088a90611708565b60405180910390fd5b5b6000600454036108b9576108b282846108ad91906114b5565b611016565b90506108fa565b6108f7600254600454856108cd91906114b5565b6108d79190611526565b600354600454856108e891906114b5565b6108f29190611526565b611090565b90505b6000811161093d576040517f08c379a000000000000000000000000000000000000000000000000000000000815260040161093490611774565b60405180910390fd5b61094733826110aa565b610a8560008054906101000a900473ffffffffffffffffffffffffffffffffffffffff1673ffffffffffffffffffffffffffffffffffffffff166370a08231306040518263ffffffff1660e01b81526004016109a3919061136c565b602060405180830381865afa1580156109c0573d6000803e3d6000fd5b505050506040513d601f19601f820116820180604052508101906109e49190611459565b600160009054906101000a900473ffffffffffffffffffffffffffffffffffffffff1673ffffffffffffffffffffffffffffffffffffffff166370a08231306040518263ffffffff1660e01b8152600401610a3f919061136c565b602060405180830381865afa158015610a5c573d6000803e3d6000fd5b505050506040513d601f19601f82011682018060405250810190610a809190611459565b611002565b92915050565b7f000000000000000000000000000000000000000000000000000000000000000081565b60008060009054906101000a900473ffffffffffffffffffffffffffffffffffffffff1673ffffffffffffffffffffffffffffffffffffffff168373ffffffffffffffffffffffffffffffffffffffff161480610b595750600160009054906101000a900473ffffffffffffffffffffffffffffffffffffffff1673ffffffffffffffffffffffffffffffffffffffff168373ffffffffffffffffffffffffffffffffffffffff16145b610b98576040517f08c379a0000000000000000000000000000000000000000000000000000000008152600401610b8f906117e0565b60405180910390fd5b60008211610bdb576040517f08c379a0000000000000000000000000000000000000000000000000000000008152600401610bd29061184c565b60405180910390fd5b60008060009054906101000a900473ffffffffffffffffffffffffffffffffffffffff1673ffffffffffffffffffffffffffffffffffffffff168473ffffffffffffffffffffffffffffffffffffffff1614905060008060008084610c8957600160009054906101000a900473ffffffffffffffffffffffffffffffffffffffff1660008054906101000a900473ffffffffffffffffffffffffffffffffffffffff16600354600254610cd4565b60008054906101000a900473ffffffffffffffffffffffffffffffffffffffff16600160009054906101000a900473ffffffffffffffffffffffffffffffffffffffff166002546003545b93509350935093508373ffffffffffffffffffffffffffffffffffffffff166323b872dd33308a6040518463ffffffff1660e01b8152600401610d1993929190611685565b6020604051808303816000875af1158015610d38573d6000803e3d6000fd5b505050506040513d601f19601f82011682018060405250810190610d5c9190611658565b5060006103e86103e589610d7091906114b5565b610d7a9190611526565b90508783610d88919061186c565b8883610d9491906114b5565b610d9e9190611526565b96508373ffffffffffffffffffffffffffffffffffffffff1663a9059cbb33896040518363ffffffff1660e01b8152600401610ddb9291906115f7565b6020604051808303816000875af1158015610dfa573d6000803e3d6000fd5b505050506040513d601f19601f82011682018060405250810190610e1e9190611658565b50610f5d60008054906101000a900473ffffffffffffffffffffffffffffffffffffffff1673ffffffffffffffffffffffffffffffffffffffff166370a08231306040518263ffffffff1660e01b8152600401610e7b919061136c565b602060405180830381865afa158015610e98573d6000803e3d6000fd5b505050506040513d601f19601f82011682018060405250810190610ebc9190611459565b600160009054906101000a900473ffffffffffffffffffffffffffffffffffffffff1673ffffffffffffffffffffffffffffffffffffffff166370a08231306040518263ffffffff1660e01b8152600401610f17919061136c565b602060405180830381865afa158015610f34573d6000803e3d6000fd5b505050506040513d601f19601f82011682018060405250810190610f589190611459565b611002565b50505050505092915050565b600160009054906101000a900473ffffffffffffffffffffffffffffffffffffffff1681565b80600560008473ffffffffffffffffffffffffffffffffffffffff1673ffffffffffffffffffffffffffffffffffffffff1681526020019081526020016000206000828254610fde91906115c3565b925050819055508060046000828254610ff791906115c3565b925050819055505050565b600354600281905550806003819055505050565b6000600382111561107d57819050600060016002846110359190611526565b61103f919061186c565b90505b8181101561107757809150600281828561105c9190611526565b611066919061186c565b6110709190611526565b9050611042565b5061108b565b6000821461108a57600190505b5b919050565b6000818311156110a057816110a2565b825b905092915050565b80600560008473ffffffffffffffffffffffffffffffffffffffff1673ffffffffffffffffffffffffffffffffffffffff16815260200190815260200160002060008282546110f9919061186c565b925050819055508060046000828254611112919061186c565b925050819055505050565b600073ffffffffffffffffffffffffffffffffffffffff82169050919050565b6000819050919050565b600061116261115d6111588461111d565b61113d565b61111d565b9050919050565b600061117482611147565b9050919050565b600061118682611169565b9050919050565b6111968161117b565b82525050565b60006020820190506111b1600083018461118d565b92915050565b6000819050919050565b6111ca816111b7565b82525050565b60006020820190506111e560008301846111c1565b92915050565b600080fd5b60006111fb8261111d565b9050919050565b61120b816111f0565b811461121657600080fd5b50565b60008135905061122881611202565b92915050565b60008060408385031215611245576112446111eb565b5b600061125385828601611219565b925050602061126485828601611219565b9150509250929050565b611277816111b7565b811461128257600080fd5b50565b6000813590506112948161126e565b92915050565b6000602082840312156112b0576112af6111eb565b5b60006112be84828501611285565b91505092915050565b60006040820190506112dc60008301856111c1565b6112e960208301846111c1565b9392505050565b600060208284031215611306576113056111eb565b5b600061131484828501611219565b91505092915050565b60008060408385031215611334576113336111eb565b5b600061134285828601611285565b925050602061135385828601611285565b9150509250929050565b611366816111f0565b82525050565b6000602082019050611381600083018461135d565b92915050565b6000806040838503121561139e5761139d6111eb565b5b60006113ac85828601611219565b92505060206113bd85828601611285565b9150509250929050565b600082825260208201905092915050565b7f464f5242494444454e0000000000000000000000000000000000000000000000600082015250565b600061140e6009836113c7565b9150611419826113d8565b602082019050919050565b6000602082019050818103600083015261143d81611401565b9050919050565b6000815190506114538161126e565b92915050565b60006020828403121561146f5761146e6111eb565b5b600061147d84828501611444565b91505092915050565b7f4e487b7100000000000000000000000000000000000000000000000000000000600052601160045260246000fd5b60006114c0826111b7565b91506114cb836111b7565b92508282026114d9816111b7565b915082820484148315176114f0576114ef611486565b5b5092915050565b7f4e487b7100000000000000000000000000000000000000000000000000000000600052601260045260246000fd5b6000611531826111b7565b915061153c836111b7565b92508261154c5761154b6114f7565b5b828204905092915050565b7f616d6f756e7430206f7220616d6f756e7431206973203c203000000000000000600082015250565b600061158d6019836113c7565b915061159882611557565b602082019050919050565b600060208201905081810360008301526115bc81611580565b9050919050565b60006115ce826111b7565b91506115d9836111b7565b92508282039050818111156115f1576115f0611486565b5b92915050565b600060408201905061160c600083018561135d565b61161960208301846111c1565b9392505050565b60008115159050919050565b61163581611620565b811461164057600080fd5b50565b6000815190506116528161162c565b92915050565b60006020828403121561166e5761166d6111eb565b5b600061167c84828501611643565b91505092915050565b600060608201905061169a600083018661135d565b6116a7602083018561135d565b6116b460408301846111c1565b949350505050565b7f64792f647820213d20792f780000000000000000000000000000000000000000600082015250565b60006116f2600c836113c7565b91506116fd826116bc565b602082019050919050565b60006020820190508181036000830152611721816116e5565b9050919050565b7f6572726f7220736861726573203c203000000000000000000000000000000000600082015250565b600061175e6010836113c7565b915061176982611728565b602082019050919050565b6000602082019050818103600083015261178d81611751565b9050919050565b7f496e76616c696420696e70757420746f6b656e00000000000000000000000000600082015250565b60006117ca6013836113c7565b91506117d582611794565b602082019050919050565b600060208201905081810360008301526117f9816117bd565b9050919050565b7f496e70757420616d6f756e7420746f6f206c6f77000000000000000000000000600082015250565b60006118366014836113c7565b915061184182611800565b602082019050919050565b6000602082019050818103600083015261186581611829565b9050919050565b6000611877826111b7565b9150611882836111b7565b925082820190508082111561189a57611899611486565b5b9291505056fea264697066735822122096c5ae674f3915034d4a7e9d53b3b64675e477cce849501b7696cd97c1a04a8f64736f6c63430008130033",
  "devdoc": {
    "kind": "dev",
    "methods": {},
    "version": 1
  },
  "userdoc": {
    "kind": "user",
    "methods": {},
    "version": 1
  },
  "storageLayout": {
    "storage": [
      {
        "astId": 2921,
        "contract": "contracts/Test/AMM.sol:CPAMM",
        "label": "token0",
        "offset": 0,
        "slot": "0",
        "type": "t_contract(IERC20)692"
      },
      {
        "astId": 2924,
        "contract": "contracts/Test/AMM.sol:CPAMM",
        "label": "token1",
        "offset": 0,
        "slot": "1",
        "type": "t_contract(IERC20)692"
      },
      {
        "astId": 2928,
        "contract": "contracts/Test/AMM.sol:CPAMM",
        "label": "reserve0",
        "offset": 0,
        "slot": "2",
        "type": "t_uint256"
      },
      {
        "astId": 2930,
        "contract": "contracts/Test/AMM.sol:CPAMM",
        "label": "reserve1",
        "offset": 0,
        "slot": "3",
        "type": "t_uint256"
      },
      {
        "astId": 2932,
        "contract": "contracts/Test/AMM.sol:CPAMM",
        "label": "totalSupply",
        "offset": 0,
        "slot": "4",
        "type": "t_uint256"
      },
      {
        "astId": 2936,
        "contract": "contracts/Test/AMM.sol:CPAMM",
        "label": "balanceOf",
        "offset": 0,
        "slot": "5",
        "type": "t_mapping(t_address,t_uint256)"
      }
    ],
    "types": {
      "t_address": {
        "encoding": "inplace",
        "label": "address",
        "numberOfBytes": "20"
      },
      "t_contract(IERC20)692": {
        "encoding": "inplace",
        "label": "contract IERC20",
        "numberOfBytes": "20"
      },
      "t_mapping(t_address,t_uint256)": {
        "encoding": "mapping",
        "key": "t_address",
        "label": "mapping(address => uint256)",
        "numberOfBytes": "32",
        "value": "t_uint256"
      },
      "t_uint256": {
        "encoding": "inplace",
        "label": "uint256",
        "numberOfBytes": "32"
      }
    }
  }
}