{
  "address": "0xa513E6E4b8f2a923D98304ec87F64353C4D5C853",
  "abi": [
    {
      "inputs": [],
      "stateMutability": "nonpayable",
      "type": "constructor"
    },
    {
      "inputs": [],
      "name": "InvalidShortString",
      "type": "error"
    },
    {
      "inputs": [
        {
          "internalType": "string",
          "name": "str",
          "type": "string"
        }
      ],
      "name": "StringTooLong",
      "type": "error"
    },
    {
      "anonymous": false,
      "inputs": [],
      "name": "EIP712DomainChanged",
      "type": "event"
    },
    {
      "inputs": [
        {
          "internalType": "address",
          "name": "spender",
          "type": "address"
        },
        {
          "internalType": "bytes32",
          "name": "publicKey",
          "type": "bytes32"
        },
        {
          "internalType": "bytes",
          "name": "signature",
          "type": "bytes"
        }
      ],
      "name": "allowance",
      "outputs": [
        {
          "internalType": "bytes",
          "name": "",
          "type": "bytes"
        }
      ],
      "stateMutability": "view",
      "type": "function"
    },
    {
      "inputs": [
        {
          "internalType": "address",
          "name": "",
          "type": "address"
        },
        {
          "internalType": "address",
          "name": "",
          "type": "address"
        }
      ],
      "name": "allowances",
      "outputs": [
        {
          "internalType": "euint32",
          "name": "",
          "type": "uint256"
        }
      ],
      "stateMutability": "view",
      "type": "function"
    },
    {
      "inputs": [
        {
          "internalType": "address",
          "name": "spender",
          "type": "address"
        },
        {
          "internalType": "bytes",
          "name": "encryptedAmount",
          "type": "bytes"
        }
      ],
      "name": "approve",
      "outputs": [],
      "stateMutability": "nonpayable",
      "type": "function"
    },
    {
      "inputs": [
        {
          "internalType": "bytes32",
          "name": "publicKey",
          "type": "bytes32"
        },
        {
          "internalType": "bytes",
          "name": "signature",
          "type": "bytes"
        }
      ],
      "name": "balanceOf",
      "outputs": [
        {
          "internalType": "bytes",
          "name": "",
          "type": "bytes"
        }
      ],
      "stateMutability": "view",
      "type": "function"
    },
    {
      "inputs": [
        {
          "internalType": "address",
          "name": "",
          "type": "address"
        }
      ],
      "name": "balances",
      "outputs": [
        {
          "internalType": "euint32",
          "name": "",
          "type": "uint256"
        }
      ],
      "stateMutability": "view",
      "type": "function"
    },
    {
      "inputs": [],
      "name": "contractOwner",
      "outputs": [
        {
          "internalType": "address",
          "name": "",
          "type": "address"
        }
      ],
      "stateMutability": "view",
      "type": "function"
    },
    {
      "inputs": [],
      "name": "decimals",
      "outputs": [
        {
          "internalType": "uint8",
          "name": "",
          "type": "uint8"
        }
      ],
      "stateMutability": "view",
      "type": "function"
    },
    {
      "inputs": [],
      "name": "eip712Domain",
      "outputs": [
        {
          "internalType": "bytes1",
          "name": "fields",
          "type": "bytes1"
        },
        {
          "internalType": "string",
          "name": "name",
          "type": "string"
        },
        {
          "internalType": "string",
          "name": "version",
          "type": "string"
        },
        {
          "internalType": "uint256",
          "name": "chainId",
          "type": "uint256"
        },
        {
          "internalType": "address",
          "name": "verifyingContract",
          "type": "address"
        },
        {
          "internalType": "bytes32",
          "name": "salt",
          "type": "bytes32"
        },
        {
          "internalType": "uint256[]",
          "name": "extensions",
          "type": "uint256[]"
        }
      ],
      "stateMutability": "view",
      "type": "function"
    },
    {
      "inputs": [
        {
          "internalType": "bytes32",
          "name": "publicKey",
          "type": "bytes32"
        },
        {
          "internalType": "bytes",
          "name": "signature",
          "type": "bytes"
        }
      ],
      "name": "getTotalSupply",
      "outputs": [
        {
          "internalType": "bytes",
          "name": "",
          "type": "bytes"
        }
      ],
      "stateMutability": "view",
      "type": "function"
    },
    {
      "inputs": [
        {
          "internalType": "bytes",
          "name": "encryptedAmount",
          "type": "bytes"
        }
      ],
      "name": "mint",
      "outputs": [],
      "stateMutability": "nonpayable",
      "type": "function"
    },
    {
      "inputs": [],
      "name": "name",
      "outputs": [
        {
          "internalType": "string",
          "name": "",
          "type": "string"
        }
      ],
      "stateMutability": "view",
      "type": "function"
    },
    {
      "inputs": [],
      "name": "symbol",
      "outputs": [
        {
          "internalType": "string",
          "name": "",
          "type": "string"
        }
      ],
      "stateMutability": "view",
      "type": "function"
    },
    {
      "inputs": [
        {
          "internalType": "address",
          "name": "to",
          "type": "address"
        },
        {
          "internalType": "bytes",
          "name": "encryptedAmount",
          "type": "bytes"
        }
      ],
      "name": "transfer",
      "outputs": [],
      "stateMutability": "nonpayable",
      "type": "function"
    },
    {
      "inputs": [
        {
          "internalType": "address",
          "name": "to",
          "type": "address"
        },
        {
          "internalType": "euint32",
          "name": "amount",
          "type": "uint256"
        }
      ],
      "name": "transfer",
      "outputs": [],
      "stateMutability": "nonpayable",
      "type": "function"
    },
    {
      "inputs": [
        {
          "internalType": "address",
          "name": "from",
          "type": "address"
        },
        {
          "internalType": "address",
          "name": "to",
          "type": "address"
        },
        {
          "internalType": "euint32",
          "name": "amount",
          "type": "uint256"
        }
      ],
      "name": "transferFrom",
      "outputs": [],
      "stateMutability": "nonpayable",
      "type": "function"
    },
    {
      "inputs": [
        {
          "internalType": "address",
          "name": "from",
          "type": "address"
        },
        {
          "internalType": "address",
          "name": "to",
          "type": "address"
        },
        {
          "internalType": "bytes",
          "name": "encryptedAmount",
          "type": "bytes"
        }
      ],
      "name": "transferFrom",
      "outputs": [],
      "stateMutability": "nonpayable",
      "type": "function"
    }
  ],
  "transactionHash": "0xdab0940107dd17e5a2d666a08cc9a6d69cbdd67ea1a9c7a0ac58e060a5e50950",
  "args": [],
  "numDeployments": 1,
  "solcInputHash": "84274cabe1a19b3b2a9f8ee1c00ab900",
  "bytecode": "0x6101806040523480156200001257600080fd5b506040518060400160405280601381526020017f417574686f72697a6174696f6e20746f6b656e000000000000000000000000008152506040518060400160405280600181526020017f31000000000000000000000000000000000000000000000000000000000000008152508181620000976000836200016e60201b90919060201c565b6101208181525050620000b56001826200016e60201b90919060201c565b6101408181525050818051906020012060e08181525050808051906020012061010081815250504660a08181525050620000f4620001c660201b60201c565b608081815250503073ffffffffffffffffffffffffffffffffffffffff1660c08173ffffffffffffffffffffffffffffffffffffffff1681525050505050503373ffffffffffffffffffffffffffffffffffffffff166101608173ffffffffffffffffffffffffffffffffffffffff16815250506200081e565b600060208351101562000194576200018c836200022360201b60201c565b9050620001c0565b82620001a6836200029060201b60201c565b6000019081620001b7919062000514565b5060ff60001b90505b92915050565b60007f8b73c3c69bb8fe3d512ecc4cf759cc79239f7b179b0ffacaa9a75d522b39400f60e051610100514630604051602001620002089594939291906200066c565b60405160208183030381529060405280519060200120905090565b600080829050601f815111156200027357826040517f305a27a90000000000000000000000000000000000000000000000000000000081526004016200026a919062000758565b60405180910390fd5b8051816200028190620007ae565b60001c1760001b915050919050565b6000819050919050565b600081519050919050565b7f4e487b7100000000000000000000000000000000000000000000000000000000600052604160045260246000fd5b7f4e487b7100000000000000000000000000000000000000000000000000000000600052602260045260246000fd5b600060028204905060018216806200031c57607f821691505b602082108103620003325762000331620002d4565b5b50919050565b60008190508160005260206000209050919050565b60006020601f8301049050919050565b600082821b905092915050565b6000600883026200039c7fffffffffffffffffffffffffffffffffffffffffffffffffffffffffffffffff826200035d565b620003a886836200035d565b95508019841693508086168417925050509392505050565b6000819050919050565b6000819050919050565b6000620003f5620003ef620003e984620003c0565b620003ca565b620003c0565b9050919050565b6000819050919050565b6200041183620003d4565b620004296200042082620003fc565b8484546200036a565b825550505050565b600090565b6200044062000431565b6200044d81848462000406565b505050565b5b8181101562000475576200046960008262000436565b60018101905062000453565b5050565b601f821115620004c4576200048e8162000338565b62000499846200034d565b81016020851015620004a9578190505b620004c1620004b8856200034d565b83018262000452565b50505b505050565b600082821c905092915050565b6000620004e960001984600802620004c9565b1980831691505092915050565b6000620005048383620004d6565b9150826002028217905092915050565b6200051f826200029a565b67ffffffffffffffff8111156200053b576200053a620002a5565b5b62000547825462000303565b6200055482828562000479565b600060209050601f8311600181146200058c576000841562000577578287015190505b620005838582620004f6565b865550620005f3565b601f1984166200059c8662000338565b60005b82811015620005c6578489015182556001820191506020850194506020810190506200059f565b86831015620005e65784890151620005e2601f891682620004d6565b8355505b6001600288020188555050505b505050505050565b6000819050919050565b6200061081620005fb565b82525050565b6200062181620003c0565b82525050565b600073ffffffffffffffffffffffffffffffffffffffff82169050919050565b6000620006548262000627565b9050919050565b620006668162000647565b82525050565b600060a08201905062000683600083018862000605565b62000692602083018762000605565b620006a1604083018662000605565b620006b0606083018562000616565b620006bf60808301846200065b565b9695505050505050565b600082825260208201905092915050565b60005b83811015620006fa578082015181840152602081019050620006dd565b60008484015250505050565b6000601f19601f8301169050919050565b600062000724826200029a565b620007308185620006c9565b935062000742818560208601620006da565b6200074d8162000706565b840191505092915050565b6000602082019050818103600083015262000774818462000717565b905092915050565b600081519050919050565b6000819050602082019050919050565b6000620007a58251620005fb565b80915050919050565b6000620007bb826200077c565b82620007c78462000787565b9050620007d48162000797565b925060208210156200081757620008127fffffffffffffffffffffffffffffffffffffffffffffffffffffffffffffffff836020036008026200035d565b831692505b5050919050565b60805160a05160c05160e051610100516101205161014051610160516129a06200089960003960008181610625015281816106d50152818161073b0152610bac015260006107f6015260006107c20152600061182701526000611806015260006111ca015260006112200152600061124901526129a06000f3fe608060405234801561001057600080fd5b50600436106101005760003560e01c80637b7c65c91161009757806395d89b411161006657806395d89b41146102b1578063a9059cbb146102cf578063b6ce514b146102eb578063ce606ee01461031b57610100565b80637b7c65c9146102115780637ba0e2e71461024157806384b0196e1461025d5780638ff9e2f51461028157610100565b806329723511116100d3578063297235111461018b578063313ce567146101a757806349972663146101c557806355b6ed5c146101e157610100565b8063014647f41461010557806306fdde031461012157806323b872dd1461013f57806327e235e31461015b575b600080fd5b61011f600480360381019061011a9190611c56565b610339565b005b61012961039b565b6040516101369190611d46565b60405180910390f35b61015960048036038101906101549190611d9e565b6103d4565b005b61017560048036038101906101709190611df1565b6103f5565b6040516101829190611e59565b60405180910390f35b6101a560048036038101906101a09190611c56565b61040d565b005b6101af610468565b6040516101bc9190611e90565b60405180910390f35b6101df60048036038101906101da9190611eab565b61046d565b005b6101fb60048036038101906101f69190611f1f565b6104ca565b6040516102089190611e59565b60405180910390f35b61022b60048036038101906102269190611f95565b6104ef565b604051610238919061204a565b60405180910390f35b61025b6004803603810190610256919061206c565b610623565b005b6102656107af565b60405161027897969594939291906121df565b60405180910390f35b61029b60048036038101906102969190611f95565b6108b1565b6040516102a8919061204a565b60405180910390f35b6102b9610a22565b6040516102c69190611d46565b60405180910390f35b6102e960048036038101906102e49190612263565b610a5b565b005b610305600480360381019061030091906122a3565b610a6a565b604051610312919061204a565b60405180910390f35b610323610baa565b6040516103309190612317565b60405180910390f35b6000339050610395818561039086868080601f016020809104026020016040519081016040528093929190818152602001838380828437600081840152601f19601f82011690508083019250505050505050610bce565b610be2565b50505050565b6040518060400160405280601581526020017f577261707065642045524332302050726976617465000000000000000000000081525081565b60003390506103e4848284610c68565b6103ef848484610cab565b50505050565b60046020528060005260406000206000915090505481565b6104638361045e84848080601f016020809104026020016040519081016040528093929190818152602001838380828437600081840152601f19601f82011690508083019250505050505050610bce565b610a5b565b505050565b600381565b6104c484846104bf85858080601f016020809104026020016040519081016040528093929190818152602001838380828437600081840152601f19601f82011690508083019250505050505050610bce565b6103d4565b50505050565b6005602052816000526040600020602052806000526040600020600091509150505481565b60608383838080601f016020809104026020016040519081016040528093929190818152602001838380828437600081840152601f19601f82011690508083019250505050505050600061058a7f051d137ae0e1fae6e3b6559fed4442b35a85a9a39789838ad5c9ea05e7da2dce8460405160200161056f929190612332565b60405160208183030381529060405280519060200120610e22565b905060006105988284610e3c565b90503373ffffffffffffffffffffffffffffffffffffffff168173ffffffffffffffffffffffffffffffffffffffff1614610608576040517f08c379a00000000000000000000000000000000000000000000000000000000081526004016105ff906123cd565b60405180910390fd5b610616600254896000610e63565b9450505050509392505050565b7f000000000000000000000000000000000000000000000000000000000000000073ffffffffffffffffffffffffffffffffffffffff163373ffffffffffffffffffffffffffffffffffffffff161461067b57600080fd5b60006106ca83838080601f016020809104026020016040519081016040528093929190818152602001838380828437600081840152601f19601f82011690508083019250505050505050610bce565b9050610735600460007f000000000000000000000000000000000000000000000000000000000000000073ffffffffffffffffffffffffffffffffffffffff1673ffffffffffffffffffffffffffffffffffffffff1681526020019081526020016000205482610ea0565b600460007f000000000000000000000000000000000000000000000000000000000000000073ffffffffffffffffffffffffffffffffffffffff1673ffffffffffffffffffffffffffffffffffffffff168152602001908152602001600020819055506107a460025482610ea0565b600281905550505050565b6000606080600080600060606107ef60007f0000000000000000000000000000000000000000000000000000000000000000610eb490919063ffffffff16565b61082360017f0000000000000000000000000000000000000000000000000000000000000000610eb490919063ffffffff16565b46306000801b600067ffffffffffffffff811115610844576108436123ed565b5b6040519080825280602002602001820160405280156108725781602001602082028036833780820191505090505b507f0f00000000000000000000000000000000000000000000000000000000000000959493929190965096509650965096509650965090919293949596565b60608383838080601f016020809104026020016040519081016040528093929190818152602001838380828437600081840152601f19601f82011690508083019250505050505050600061094c7f051d137ae0e1fae6e3b6559fed4442b35a85a9a39789838ad5c9ea05e7da2dce84604051602001610931929190612332565b60405160208183030381529060405280519060200120610e22565b9050600061095a8284610e3c565b90503373ffffffffffffffffffffffffffffffffffffffff168173ffffffffffffffffffffffffffffffffffffffff16146109ca576040517f08c379a00000000000000000000000000000000000000000000000000000000081526004016109c1906123cd565b60405180910390fd5b610a15600460003373ffffffffffffffffffffffffffffffffffffffff1673ffffffffffffffffffffffffffffffffffffffff16815260200190815260200160002054896000610e63565b9450505050509392505050565b6040518060400160405280600381526020017f574550000000000000000000000000000000000000000000000000000000000081525081565b610a66338383610cab565b5050565b60608383838080601f016020809104026020016040519081016040528093929190818152602001838380828437600081840152601f19601f820116905080830192505050505050506000610b057f051d137ae0e1fae6e3b6559fed4442b35a85a9a39789838ad5c9ea05e7da2dce84604051602001610aea929190612332565b60405160208183030381529060405280519060200120610e22565b90506000610b138284610e3c565b90503373ffffffffffffffffffffffffffffffffffffffff168173ffffffffffffffffffffffffffffffffffffffff1614610b83576040517f08c379a0000000000000000000000000000000000000000000000000000000008152600401610b7a906123cd565b60405180910390fd5b6000339050610b9b610b95828c610f64565b8a611087565b95505050505050949350505050565b7f000000000000000000000000000000000000000000000000000000000000000081565b6000610bdb82600261109b565b9050919050565b80600560008573ffffffffffffffffffffffffffffffffffffffff1673ffffffffffffffffffffffffffffffffffffffff16815260200190815260200160002060008473ffffffffffffffffffffffffffffffffffffffff1673ffffffffffffffffffffffffffffffffffffffff16815260200190815260200160002081905550505050565b6000610c748484610f64565b9050610c88610c838383611149565b61119d565b610c9157600080fd5b610ca58484610ca084866111b2565b610be2565b50505050565b610cfc610cf782600460008773ffffffffffffffffffffffffffffffffffffffff1673ffffffffffffffffffffffffffffffffffffffff16815260200190815260200160002054611149565b61119d565b610d0557600080fd5b610d4e600460008473ffffffffffffffffffffffffffffffffffffffff1673ffffffffffffffffffffffffffffffffffffffff1681526020019081526020016000205482610ea0565b600460008473ffffffffffffffffffffffffffffffffffffffff1673ffffffffffffffffffffffffffffffffffffffff16815260200190815260200160002081905550610dda600460008573ffffffffffffffffffffffffffffffffffffffff1673ffffffffffffffffffffffffffffffffffffffff16815260200190815260200160002054826111b2565b600460008573ffffffffffffffffffffffffffffffffffffffff1673ffffffffffffffffffffffffffffffffffffffff16815260200190815260200160002081905550505050565b6000610e35610e2f6111c6565b8361127d565b9050919050565b6000806000610e4b85856112be565b91509150610e588161130f565b819250505092915050565b606060008414610e7e57610e778484611475565b9050610e99565b610e96610e908363ffffffff16611504565b84611475565b90505b9392505050565b6000610eac8383611518565b905092915050565b606060ff60001b8314610ed157610eca83611562565b9050610f5e565b818054610edd9061244b565b80601f0160208091040260200160405190810160405280929190818152602001828054610f099061244b565b8015610f565780601f10610f2b57610100808354040283529160200191610f56565b820191906000526020600020905b815481529060010190602001808311610f3957829003601f168201915b505050505090505b92915050565b6000610feb600560008573ffffffffffffffffffffffffffffffffffffffff1673ffffffffffffffffffffffffffffffffffffffff16815260200190815260200160002060008473ffffffffffffffffffffffffffffffffffffffff1673ffffffffffffffffffffffffffffffffffffffff168152602001908152602001600020546115d6565b1561107457600560008473ffffffffffffffffffffffffffffffffffffffff1673ffffffffffffffffffffffffffffffffffffffff16815260200190815260200160002060008373ffffffffffffffffffffffffffffffffffffffff1673ffffffffffffffffffffffffffffffffffffffff168152602001908152602001600020549050611081565b61107e6000611504565b90505b92915050565b60606110938383611475565b905092915050565b600080838360f81b6040516020016110b49291906124d9565b6040516020818303038152906040529050605d73ffffffffffffffffffffffffffffffffffffffff16634b252ec8826040518263ffffffff1660e01b81526004016110ff919061204a565b602060405180830381865afa15801561111c573d6000803e3d6000fd5b505050506040513d601f19601f82011682018060405250810190611140919061252d565b91505092915050565b6000611154836115d6565b611165576111626000611504565b92505b61116e826115d6565b61117f5761117c6000611504565b91505b61119561118e848460006115e3565b6000611689565b905092915050565b6000806111a983611713565b14159050919050565b60006111be8383611797565b905092915050565b60007f000000000000000000000000000000000000000000000000000000000000000073ffffffffffffffffffffffffffffffffffffffff163073ffffffffffffffffffffffffffffffffffffffff1614801561124257507f000000000000000000000000000000000000000000000000000000000000000046145b1561126f577f0000000000000000000000000000000000000000000000000000000000000000905061127a565b6112776117e1565b90505b90565b60006040517f190100000000000000000000000000000000000000000000000000000000000081528360028201528260228201526042812091505092915050565b60008060418351036112ff5760008060006020860151925060408601519150606086015160001a90506112f387828585611877565b94509450505050611308565b60006002915091505b9250929050565b600060048111156113235761132261255a565b5b8160048111156113365761133561255a565b5b031561147257600160048111156113505761134f61255a565b5b8160048111156113635761136261255a565b5b036113a3576040517f08c379a000000000000000000000000000000000000000000000000000000000815260040161139a906125d5565b60405180910390fd5b600260048111156113b7576113b661255a565b5b8160048111156113ca576113c961255a565b5b0361140a576040517f08c379a000000000000000000000000000000000000000000000000000000000815260040161140190612641565b60405180910390fd5b6003600481111561141e5761141d61255a565b5b8160048111156114315761143061255a565b5b03611471576040517f08c379a0000000000000000000000000000000000000000000000000000000008152600401611468906126d3565b60405180910390fd5b5b50565b6060605d73ffffffffffffffffffffffffffffffffffffffff1663d6ad57cd848460001c6040518363ffffffff1660e01b81526004016114b69291906126f3565b600060405180830381865afa1580156114d3573d6000803e3d6000fd5b505050506040513d6000823e3d601f19601f820116820180604052508101906114fc919061280e565b905092915050565b6000611511826002611959565b9050919050565b6000611523836115d6565b611534576115316000611504565b92505b61153d826115d6565b61154e5761154b6000611504565b91505b61155a838360006119e3565b905092915050565b6060600061156f83611a89565b90506000602067ffffffffffffffff81111561158e5761158d6123ed565b5b6040519080825280601f01601f1916602001820160405280156115c05781602001600182028036833780820191505090505b5090508181528360208201528092505050919050565b6000808214159050919050565b60008082156115f857600160f81b9050611600565b600060f81b90505b605d73ffffffffffffffffffffffffffffffffffffffff1663694daf728686846040518463ffffffff1660e01b815260040161163e93929190612857565b602060405180830381865afa15801561165b573d6000803e3d6000fd5b505050506040513d601f19601f8201168201806040525081019061167f919061252d565b9150509392505050565b6000605d73ffffffffffffffffffffffffffffffffffffffff16634be68d20848460f81b6040518363ffffffff1660e01b81526004016116ca92919061288e565b602060405180830381865afa1580156116e7573d6000803e3d6000fd5b505050506040513d601f19601f8201168201806040525081019061170b919061252d565b905092915050565b6000605d73ffffffffffffffffffffffffffffffffffffffff16635a4ee440836040518263ffffffff1660e01b815260040161174f91906128b7565b602060405180830381865afa15801561176c573d6000803e3d6000fd5b505050506040513d601f19601f82011682018060405250810190611790919061252d565b9050919050565b60006117a2836115d6565b6117b3576117b06000611504565b92505b6117bc826115d6565b6117cd576117ca6000611504565b91505b6117d983836000611ad9565b905092915050565b60007f8b73c3c69bb8fe3d512ecc4cf759cc79239f7b179b0ffacaa9a75d522b39400f7f00000000000000000000000000000000000000000000000000000000000000007f0000000000000000000000000000000000000000000000000000000000000000463060405160200161185c9594939291906128d2565b60405160208183030381529060405280519060200120905090565b6000807f7fffffffffffffffffffffffffffffff5d576e7357a4501ddfe92f46681b20a08360001c11156118b2576000600391509150611950565b6000600187878787604051600081526020016040526040516118d79493929190612925565b6020604051602081039080840390855afa1580156118f9573d6000803e3d6000fd5b505050602060405103519050600073ffffffffffffffffffffffffffffffffffffffff168173ffffffffffffffffffffffffffffffffffffffff160361194757600060019250925050611950565b80600092509250505b94509492505050565b6000605d73ffffffffffffffffffffffffffffffffffffffff1663e71746b8848460f81b6040518363ffffffff1660e01b815260040161199a92919061288e565b602060405180830381865afa1580156119b7573d6000803e3d6000fd5b505050506040513d601f19601f820116820180604052508101906119db919061252d565b905092915050565b60008082156119f857600160f81b9050611a00565b600060f81b90505b605d73ffffffffffffffffffffffffffffffffffffffff1663f953e4278686846040518463ffffffff1660e01b8152600401611a3e93929190612857565b602060405180830381865afa158015611a5b573d6000803e3d6000fd5b505050506040513d601f19601f82011682018060405250810190611a7f919061252d565b9150509392505050565b60008060ff8360001c169050601f811115611ad0576040517fb3512b0c00000000000000000000000000000000000000000000000000000000815260040160405180910390fd5b80915050919050565b6000808215611aee57600160f81b9050611af6565b600060f81b90505b605d73ffffffffffffffffffffffffffffffffffffffff16638c14cc218686846040518463ffffffff1660e01b8152600401611b3493929190612857565b602060405180830381865afa158015611b51573d6000803e3d6000fd5b505050506040513d601f19601f82011682018060405250810190611b75919061252d565b9150509392505050565b6000604051905090565b600080fd5b600080fd5b600073ffffffffffffffffffffffffffffffffffffffff82169050919050565b6000611bbe82611b93565b9050919050565b611bce81611bb3565b8114611bd957600080fd5b50565b600081359050611beb81611bc5565b92915050565b600080fd5b600080fd5b600080fd5b60008083601f840112611c1657611c15611bf1565b5b8235905067ffffffffffffffff811115611c3357611c32611bf6565b5b602083019150836001820283011115611c4f57611c4e611bfb565b5b9250929050565b600080600060408486031215611c6f57611c6e611b89565b5b6000611c7d86828701611bdc565b935050602084013567ffffffffffffffff811115611c9e57611c9d611b8e565b5b611caa86828701611c00565b92509250509250925092565b600081519050919050565b600082825260208201905092915050565b60005b83811015611cf0578082015181840152602081019050611cd5565b60008484015250505050565b6000601f19601f8301169050919050565b6000611d1882611cb6565b611d228185611cc1565b9350611d32818560208601611cd2565b611d3b81611cfc565b840191505092915050565b60006020820190508181036000830152611d608184611d0d565b905092915050565b6000819050919050565b611d7b81611d68565b8114611d8657600080fd5b50565b600081359050611d9881611d72565b92915050565b600080600060608486031215611db757611db6611b89565b5b6000611dc586828701611bdc565b9350506020611dd686828701611bdc565b9250506040611de786828701611d89565b9150509250925092565b600060208284031215611e0757611e06611b89565b5b6000611e1584828501611bdc565b91505092915050565b6000819050919050565b6000611e43611e3e611e3984611d68565b611e1e565b611d68565b9050919050565b611e5381611e28565b82525050565b6000602082019050611e6e6000830184611e4a565b92915050565b600060ff82169050919050565b611e8a81611e74565b82525050565b6000602082019050611ea56000830184611e81565b92915050565b60008060008060608587031215611ec557611ec4611b89565b5b6000611ed387828801611bdc565b9450506020611ee487828801611bdc565b935050604085013567ffffffffffffffff811115611f0557611f04611b8e565b5b611f1187828801611c00565b925092505092959194509250565b60008060408385031215611f3657611f35611b89565b5b6000611f4485828601611bdc565b9250506020611f5585828601611bdc565b9150509250929050565b6000819050919050565b611f7281611f5f565b8114611f7d57600080fd5b50565b600081359050611f8f81611f69565b92915050565b600080600060408486031215611fae57611fad611b89565b5b6000611fbc86828701611f80565b935050602084013567ffffffffffffffff811115611fdd57611fdc611b8e565b5b611fe986828701611c00565b92509250509250925092565b600081519050919050565b600082825260208201905092915050565b600061201c82611ff5565b6120268185612000565b9350612036818560208601611cd2565b61203f81611cfc565b840191505092915050565b600060208201905081810360008301526120648184612011565b905092915050565b6000806020838503121561208357612082611b89565b5b600083013567ffffffffffffffff8111156120a1576120a0611b8e565b5b6120ad85828601611c00565b92509250509250929050565b60007fff0000000000000000000000000000000000000000000000000000000000000082169050919050565b6120ee816120b9565b82525050565b6120fd81611d68565b82525050565b61210c81611bb3565b82525050565b61211b81611f5f565b82525050565b600081519050919050565b600082825260208201905092915050565b6000819050602082019050919050565b61215681611d68565b82525050565b6000612168838361214d565b60208301905092915050565b6000602082019050919050565b600061218c82612121565b612196818561212c565b93506121a18361213d565b8060005b838110156121d25781516121b9888261215c565b97506121c483612174565b9250506001810190506121a5565b5085935050505092915050565b600060e0820190506121f4600083018a6120e5565b81810360208301526122068189611d0d565b9050818103604083015261221a8188611d0d565b905061222960608301876120f4565b6122366080830186612103565b61224360a0830185612112565b81810360c08301526122558184612181565b905098975050505050505050565b6000806040838503121561227a57612279611b89565b5b600061228885828601611bdc565b925050602061229985828601611d89565b9150509250929050565b600080600080606085870312156122bd576122bc611b89565b5b60006122cb87828801611bdc565b94505060206122dc87828801611f80565b935050604085013567ffffffffffffffff8111156122fd576122fc611b8e565b5b61230987828801611c00565b925092505092959194509250565b600060208201905061232c6000830184612103565b92915050565b60006040820190506123476000830185612112565b6123546020830184612112565b9392505050565b7f454950373132207369676e657220616e64207472616e73616374696f6e20736960008201527f676e657220646f206e6f74206d61746368000000000000000000000000000000602082015250565b60006123b7603183611cc1565b91506123c28261235b565b604082019050919050565b600060208201905081810360008301526123e6816123aa565b9050919050565b7f4e487b7100000000000000000000000000000000000000000000000000000000600052604160045260246000fd5b7f4e487b7100000000000000000000000000000000000000000000000000000000600052602260045260246000fd5b6000600282049050600182168061246357607f821691505b6020821081036124765761247561241c565b5b50919050565b600081905092915050565b600061249282611ff5565b61249c818561247c565b93506124ac818560208601611cd2565b80840191505092915050565b6000819050919050565b6124d36124ce826120b9565b6124b8565b82525050565b60006124e58285612487565b91506124f182846124c2565b6001820191508190509392505050565b61250a81611d68565b811461251557600080fd5b50565b60008151905061252781612501565b92915050565b60006020828403121561254357612542611b89565b5b600061255184828501612518565b91505092915050565b7f4e487b7100000000000000000000000000000000000000000000000000000000600052602160045260246000fd5b7f45434453413a20696e76616c6964207369676e61747572650000000000000000600082015250565b60006125bf601883611cc1565b91506125ca82612589565b602082019050919050565b600060208201905081810360008301526125ee816125b2565b9050919050565b7f45434453413a20696e76616c6964207369676e6174757265206c656e67746800600082015250565b600061262b601f83611cc1565b9150612636826125f5565b602082019050919050565b6000602082019050818103600083015261265a8161261e565b9050919050565b7f45434453413a20696e76616c6964207369676e6174757265202773272076616c60008201527f7565000000000000000000000000000000000000000000000000000000000000602082015250565b60006126bd602283611cc1565b91506126c882612661565b604082019050919050565b600060208201905081810360008301526126ec816126b0565b9050919050565b600060408201905061270860008301856120f4565b61271560208301846120f4565b9392505050565b600080fd5b61272a82611cfc565b810181811067ffffffffffffffff82111715612749576127486123ed565b5b80604052505050565b600061275c611b7f565b90506127688282612721565b919050565b600067ffffffffffffffff821115612788576127876123ed565b5b61279182611cfc565b9050602081019050919050565b60006127b16127ac8461276d565b612752565b9050828152602081018484840111156127cd576127cc61271c565b5b6127d8848285611cd2565b509392505050565b600082601f8301126127f5576127f4611bf1565b5b815161280584826020860161279e565b91505092915050565b60006020828403121561282457612823611b89565b5b600082015167ffffffffffffffff81111561284257612841611b8e565b5b61284e848285016127e0565b91505092915050565b600060608201905061286c60008301866120f4565b61287960208301856120f4565b61288660408301846120e5565b949350505050565b60006040820190506128a360008301856120f4565b6128b060208301846120e5565b9392505050565b60006020820190506128cc60008301846120f4565b92915050565b600060a0820190506128e76000830188612112565b6128f46020830187612112565b6129016040830186612112565b61290e60608301856120f4565b61291b6080830184612103565b9695505050505050565b600060808201905061293a6000830187612112565b6129476020830186611e81565b6129546040830185612112565b6129616060830184612112565b9594505050505056fea26469706673582212200ea51b6212014fa710eb027d325871b2a2a048d893954f0a3839288e94da320f64736f6c63430008130033",
  "devdoc": {
    "events": {
      "EIP712DomainChanged()": {
        "details": "MAY be emitted to signal that the domain could have changed."
      }
    },
    "kind": "dev",
    "methods": {
      "eip712Domain()": {
        "details": "See {EIP-5267}. _Available since v4.9._"
      }
    },
    "version": 1
  },
  "userdoc": {
    "kind": "user",
    "methods": {},
    "version": 1
  },
  "storageLayout": {
    "storage": [
      {
        "astId": 1701,
        "contract": "contracts/wrappingEncryptedETHERC20.sol:EncryptedETHERC20",
        "label": "_nameFallback",
        "offset": 0,
        "slot": "0",
        "type": "t_string_storage"
      },
      {
        "astId": 1703,
        "contract": "contracts/wrappingEncryptedETHERC20.sol:EncryptedETHERC20",
        "label": "_versionFallback",
        "offset": 0,
        "slot": "1",
        "type": "t_string_storage"
      },
      {
        "astId": 5650,
        "contract": "contracts/wrappingEncryptedETHERC20.sol:EncryptedETHERC20",
        "label": "totalSupply",
        "offset": 0,
        "slot": "2",
        "type": "t_userDefinedValueType(euint32)7330"
      },
      {
        "astId": 5661,
        "contract": "contracts/wrappingEncryptedETHERC20.sol:EncryptedETHERC20",
        "label": "DOMAIN_SEPARATOR",
        "offset": 0,
        "slot": "3",
        "type": "t_bytes32"
      },
      {
        "astId": 5666,
        "contract": "contracts/wrappingEncryptedETHERC20.sol:EncryptedETHERC20",
        "label": "balances",
        "offset": 0,
        "slot": "4",
        "type": "t_mapping(t_address,t_userDefinedValueType(euint32)7330)"
      },
      {
        "astId": 5673,
        "contract": "contracts/wrappingEncryptedETHERC20.sol:EncryptedETHERC20",
        "label": "allowances",
        "offset": 0,
        "slot": "5",
        "type": "t_mapping(t_address,t_mapping(t_address,t_userDefinedValueType(euint32)7330))"
      }
    ],
    "types": {
      "t_address": {
        "encoding": "inplace",
        "label": "address",
        "numberOfBytes": "20"
      },
      "t_bytes32": {
        "encoding": "inplace",
        "label": "bytes32",
        "numberOfBytes": "32"
      },
      "t_mapping(t_address,t_mapping(t_address,t_userDefinedValueType(euint32)7330))": {
        "encoding": "mapping",
        "key": "t_address",
        "label": "mapping(address => mapping(address => euint32))",
        "numberOfBytes": "32",
        "value": "t_mapping(t_address,t_userDefinedValueType(euint32)7330)"
      },
      "t_mapping(t_address,t_userDefinedValueType(euint32)7330)": {
        "encoding": "mapping",
        "key": "t_address",
        "label": "mapping(address => euint32)",
        "numberOfBytes": "32",
        "value": "t_userDefinedValueType(euint32)7330"
      },
      "t_string_storage": {
        "encoding": "bytes",
        "label": "string",
        "numberOfBytes": "32"
      },
      "t_userDefinedValueType(euint32)7330": {
        "encoding": "inplace",
        "label": "euint32",
        "numberOfBytes": "32"
      }
    }
  }
}