{
  "address": "0x5FbDB2315678afecb367f032d93F642f64180aa3",
  "abi": [
    {
      "inputs": [],
      "stateMutability": "nonpayable",
      "type": "constructor"
    },
    {
      "inputs": [],
      "name": "InvalidShortString",
      "type": "error"
    },
    {
      "inputs": [
        {
          "internalType": "string",
          "name": "str",
          "type": "string"
        }
      ],
      "name": "StringTooLong",
      "type": "error"
    },
    {
      "anonymous": false,
      "inputs": [],
      "name": "EIP712DomainChanged",
      "type": "event"
    },
    {
      "inputs": [
        {
          "internalType": "bytes32",
          "name": "publicKey",
          "type": "bytes32"
        },
        {
          "internalType": "bytes",
          "name": "signature",
          "type": "bytes"
        }
      ],
      "name": "balanceOf",
      "outputs": [
        {
          "internalType": "bytes",
          "name": "",
          "type": "bytes"
        }
      ],
      "stateMutability": "view",
      "type": "function"
    },
    {
      "inputs": [],
      "name": "contractOwner",
      "outputs": [
        {
          "internalType": "address",
          "name": "",
          "type": "address"
        }
      ],
      "stateMutability": "view",
      "type": "function"
    },
    {
      "inputs": [],
      "name": "eip712Domain",
      "outputs": [
        {
          "internalType": "bytes1",
          "name": "fields",
          "type": "bytes1"
        },
        {
          "internalType": "string",
          "name": "name",
          "type": "string"
        },
        {
          "internalType": "string",
          "name": "version",
          "type": "string"
        },
        {
          "internalType": "uint256",
          "name": "chainId",
          "type": "uint256"
        },
        {
          "internalType": "address",
          "name": "verifyingContract",
          "type": "address"
        },
        {
          "internalType": "bytes32",
          "name": "salt",
          "type": "bytes32"
        },
        {
          "internalType": "uint256[]",
          "name": "extensions",
          "type": "uint256[]"
        }
      ],
      "stateMutability": "view",
      "type": "function"
    },
    {
      "inputs": [
        {
          "internalType": "bytes",
          "name": "_amountCipherText",
          "type": "bytes"
        }
      ],
      "name": "mint",
      "outputs": [],
      "stateMutability": "nonpayable",
      "type": "function"
    },
    {
      "inputs": [
        {
          "internalType": "address",
          "name": "to",
          "type": "address"
        },
        {
          "internalType": "bytes",
          "name": "amountCipherText",
          "type": "bytes"
        }
      ],
      "name": "transfer",
      "outputs": [],
      "stateMutability": "nonpayable",
      "type": "function"
    }
  ],
  "transactionHash": "0x4f90abdfeaebed2d964b88d36177565457f97eaa09b955831712b93451cbbd08",
  "args": [],
  "numDeployments": 1,
  "solcInputHash": "652ff4ac30fe72e8e325d3b80485de4b",
  "bytecode": "0x6101806040523480156200001257600080fd5b506040518060400160405280600a81526020017f417574685f4552433230000000000000000000000000000000000000000000008152506040518060400160405280600181526020017f31000000000000000000000000000000000000000000000000000000000000008152508181620000976000836200016e60201b90919060201c565b6101208181525050620000b56001826200016e60201b90919060201c565b6101408181525050818051906020012060e08181525050808051906020012061010081815250504660a08181525050620000f4620001c660201b60201c565b608081815250503073ffffffffffffffffffffffffffffffffffffffff1660c08173ffffffffffffffffffffffffffffffffffffffff1681525050505050503373ffffffffffffffffffffffffffffffffffffffff166101608173ffffffffffffffffffffffffffffffffffffffff16815250506200081e565b600060208351101562000194576200018c836200022360201b60201c565b9050620001c0565b82620001a6836200029060201b60201c565b6000019081620001b7919062000514565b5060ff60001b90505b92915050565b60007f8b73c3c69bb8fe3d512ecc4cf759cc79239f7b179b0ffacaa9a75d522b39400f60e051610100514630604051602001620002089594939291906200066c565b60405160208183030381529060405280519060200120905090565b600080829050601f815111156200027357826040517f305a27a90000000000000000000000000000000000000000000000000000000081526004016200026a919062000758565b60405180910390fd5b8051816200028190620007ae565b60001c1760001b915050919050565b6000819050919050565b600081519050919050565b7f4e487b7100000000000000000000000000000000000000000000000000000000600052604160045260246000fd5b7f4e487b7100000000000000000000000000000000000000000000000000000000600052602260045260246000fd5b600060028204905060018216806200031c57607f821691505b602082108103620003325762000331620002d4565b5b50919050565b60008190508160005260206000209050919050565b60006020601f8301049050919050565b600082821b905092915050565b6000600883026200039c7fffffffffffffffffffffffffffffffffffffffffffffffffffffffffffffffff826200035d565b620003a886836200035d565b95508019841693508086168417925050509392505050565b6000819050919050565b6000819050919050565b6000620003f5620003ef620003e984620003c0565b620003ca565b620003c0565b9050919050565b6000819050919050565b6200041183620003d4565b620004296200042082620003fc565b8484546200036a565b825550505050565b600090565b6200044062000431565b6200044d81848462000406565b505050565b5b8181101562000475576200046960008262000436565b60018101905062000453565b5050565b601f821115620004c4576200048e8162000338565b62000499846200034d565b81016020851015620004a9578190505b620004c1620004b8856200034d565b83018262000452565b50505b505050565b600082821c905092915050565b6000620004e960001984600802620004c9565b1980831691505092915050565b6000620005048383620004d6565b9150826002028217905092915050565b6200051f826200029a565b67ffffffffffffffff8111156200053b576200053a620002a5565b5b62000547825462000303565b6200055482828562000479565b600060209050601f8311600181146200058c576000841562000577578287015190505b620005838582620004f6565b865550620005f3565b601f1984166200059c8662000338565b60005b82811015620005c6578489015182556001820191506020850194506020810190506200059f565b86831015620005e65784890151620005e2601f891682620004d6565b8355505b6001600288020188555050505b505050505050565b6000819050919050565b6200061081620005fb565b82525050565b6200062181620003c0565b82525050565b600073ffffffffffffffffffffffffffffffffffffffff82169050919050565b6000620006548262000627565b9050919050565b620006668162000647565b82525050565b600060a08201905062000683600083018862000605565b62000692602083018762000605565b620006a1604083018662000605565b620006b0606083018562000616565b620006bf60808301846200065b565b9695505050505050565b600082825260208201905092915050565b60005b83811015620006fa578082015181840152602081019050620006dd565b60008484015250505050565b6000601f19601f8301169050919050565b600062000724826200029a565b620007308185620006c9565b935062000742818560208601620006da565b6200074d8162000706565b840191505092915050565b6000602082019050818103600083015262000774818462000717565b905092915050565b600081519050919050565b6000819050602082019050919050565b6000620007a58251620005fb565b80915050919050565b6000620007bb826200077c565b82620007c78462000787565b9050620007d48162000797565b925060208210156200081757620008127fffffffffffffffffffffffffffffffffffffffffffffffffffffffffffffffff836020036008026200035d565b831692505b5050919050565b60805160a05160c05160e05161010051610120516101405161016051611ef66200088b600039600081816102ce01526106b1015260006104830152600061044f015260006111de015260006111bd01526000610d8401526000610dda01526000610e030152611ef66000f3fe608060405234801561001057600080fd5b50600436106100575760003560e01c8063297235111461005c5780637ba0e2e71461007857806384b0196e146100945780638ff9e2f5146100b8578063ce606ee0146100e8575b600080fd5b610076600480360381019061007191906113e7565b610106565b005b610092600480360381019061008d9190611447565b6102cc565b005b61009c61043c565b6040516100af979695949392919061165e565b60405180910390f35b6100d260048036038101906100cd919061170e565b61053e565b6040516100df91906117c3565b60405180910390f35b6100f06106af565b6040516100fd91906117e5565b60405180910390f35b600061015583838080601f016020809104026020016040519081016040528093929190818152602001838380828437600081840152601f19601f820116905080830192505050505050506106d3565b905060006101a282600260003373ffffffffffffffffffffffffffffffffffffffff1673ffffffffffffffffffffffffffffffffffffffff168152602001908152602001600020546106e7565b90506101ad8161073b565b6101f6600260008773ffffffffffffffffffffffffffffffffffffffff1673ffffffffffffffffffffffffffffffffffffffff1681526020019081526020016000205483610747565b600260008773ffffffffffffffffffffffffffffffffffffffff1673ffffffffffffffffffffffffffffffffffffffff16815260200190815260200160002081905550610282600260003373ffffffffffffffffffffffffffffffffffffffff1673ffffffffffffffffffffffffffffffffffffffff1681526020019081526020016000205483610791565b600260003373ffffffffffffffffffffffffffffffffffffffff1673ffffffffffffffffffffffffffffffffffffffff168152602001908152602001600020819055505050505050565b7f000000000000000000000000000000000000000000000000000000000000000073ffffffffffffffffffffffffffffffffffffffff163373ffffffffffffffffffffffffffffffffffffffff161461035a576040517f08c379a00000000000000000000000000000000000000000000000000000000081526004016103519061184c565b60405180910390fd5b60006103a983838080601f016020809104026020016040519081016040528093929190818152602001838380828437600081840152601f19601f820116905080830192505050505050506106d3565b90506103f4600260003373ffffffffffffffffffffffffffffffffffffffff1673ffffffffffffffffffffffffffffffffffffffff1681526020019081526020016000205482610747565b600260003373ffffffffffffffffffffffffffffffffffffffff1673ffffffffffffffffffffffffffffffffffffffff16815260200190815260200160002081905550505050565b60006060806000806000606061047c60007f00000000000000000000000000000000000000000000000000000000000000006107db90919063ffffffff16565b6104b060017f00000000000000000000000000000000000000000000000000000000000000006107db90919063ffffffff16565b46306000801b600067ffffffffffffffff8111156104d1576104d061186c565b5b6040519080825280602002602001820160405280156104ff5781602001602082028036833780820191505090505b507f0f00000000000000000000000000000000000000000000000000000000000000959493929190965096509650965096509650965090919293949596565b60608383838080601f016020809104026020016040519081016040528093929190818152602001838380828437600081840152601f19601f8201169050808301925050505050505060006105d97f051d137ae0e1fae6e3b6559fed4442b35a85a9a39789838ad5c9ea05e7da2dce846040516020016105be92919061189b565b6040516020818303038152906040528051906020012061088b565b905060006105e782846108a5565b90503373ffffffffffffffffffffffffffffffffffffffff168173ffffffffffffffffffffffffffffffffffffffff1614610657576040517f08c379a000000000000000000000000000000000000000000000000000000000815260040161064e90611936565b60405180910390fd5b6106a2600260003373ffffffffffffffffffffffffffffffffffffffff1673ffffffffffffffffffffffffffffffffffffffff168152602001908152602001600020548960006108cc565b9450505050509392505050565b7f000000000000000000000000000000000000000000000000000000000000000081565b60006106e0826002610909565b9050919050565b60006106f2836109b7565b6107035761070060006109c4565b92505b61070c826109b7565b61071d5761071a60006109c4565b91505b61073361072c848460006109d8565b6000610a7e565b905092915050565b61074481610b08565b50565b6000610752836109b7565b6107635761076060006109c4565b92505b61076c826109b7565b61077d5761077a60006109c4565b91505b61078983836000610bc0565b905092915050565b600061079c836109b7565b6107ad576107aa60006109c4565b92505b6107b6826109b7565b6107c7576107c460006109c4565b91505b6107d383836000610c66565b905092915050565b606060ff60001b83146107f8576107f183610d0c565b9050610885565b81805461080490611985565b80601f016020809104026020016040519081016040528092919081815260200182805461083090611985565b801561087d5780601f106108525761010080835404028352916020019161087d565b820191906000526020600020905b81548152906001019060200180831161086057829003601f168201915b505050505090505b92915050565b600061089e610898610d80565b83610e37565b9050919050565b60008060006108b48585610e78565b915091506108c181610ec9565b819250505092915050565b6060600084146108e7576108e0848461102f565b9050610902565b6108ff6108f98363ffffffff166109c4565b8461102f565b90505b9392505050565b600080838360f81b604051602001610922929190611a13565b6040516020818303038152906040529050605d73ffffffffffffffffffffffffffffffffffffffff16634b252ec8826040518263ffffffff1660e01b815260040161096d91906117c3565b602060405180830381865afa15801561098a573d6000803e3d6000fd5b505050506040513d601f19601f820116820180604052508101906109ae9190611a67565b91505092915050565b6000808214159050919050565b60006109d18260026110be565b9050919050565b60008082156109ed57600160f81b90506109f5565b600060f81b90505b605d73ffffffffffffffffffffffffffffffffffffffff1663694daf728686846040518463ffffffff1660e01b8152600401610a3393929190611a94565b602060405180830381865afa158015610a50573d6000803e3d6000fd5b505050506040513d601f19601f82011682018060405250810190610a749190611a67565b9150509392505050565b6000605d73ffffffffffffffffffffffffffffffffffffffff16634be68d20848460f81b6040518363ffffffff1660e01b8152600401610abf929190611acb565b602060405180830381865afa158015610adc573d6000803e3d6000fd5b505050506040513d601f19601f82011682018060405250810190610b009190611a67565b905092915050565b600081604051602401610b1b9190611af4565b6040516020818303038152906040527f4ee071a1000000000000000000000000000000000000000000000000000000007bffffffffffffffffffffffffffffffffffffffffffffffffffffffff19166020820180517bffffffffffffffffffffffffffffffffffffffffffffffffffffffff838183161783525050505090506000815190506000605d90506000808360208601845afa610bba57600080fd5b50505050565b6000808215610bd557600160f81b9050610bdd565b600060f81b90505b605d73ffffffffffffffffffffffffffffffffffffffff1663f953e4278686846040518463ffffffff1660e01b8152600401610c1b93929190611a94565b602060405180830381865afa158015610c38573d6000803e3d6000fd5b505050506040513d601f19601f82011682018060405250810190610c5c9190611a67565b9150509392505050565b6000808215610c7b57600160f81b9050610c83565b600060f81b90505b605d73ffffffffffffffffffffffffffffffffffffffff16638c14cc218686846040518463ffffffff1660e01b8152600401610cc193929190611a94565b602060405180830381865afa158015610cde573d6000803e3d6000fd5b505050506040513d601f19601f82011682018060405250810190610d029190611a67565b9150509392505050565b60606000610d1983611148565b90506000602067ffffffffffffffff811115610d3857610d3761186c565b5b6040519080825280601f01601f191660200182016040528015610d6a5781602001600182028036833780820191505090505b5090508181528360208201528092505050919050565b60007f000000000000000000000000000000000000000000000000000000000000000073ffffffffffffffffffffffffffffffffffffffff163073ffffffffffffffffffffffffffffffffffffffff16148015610dfc57507f000000000000000000000000000000000000000000000000000000000000000046145b15610e29577f00000000000000000000000000000000000000000000000000000000000000009050610e34565b610e31611198565b90505b90565b60006040517f190100000000000000000000000000000000000000000000000000000000000081528360028201528260228201526042812091505092915050565b6000806041835103610eb95760008060006020860151925060408601519150606086015160001a9050610ead8782858561122e565b94509450505050610ec2565b60006002915091505b9250929050565b60006004811115610edd57610edc611b0f565b5b816004811115610ef057610eef611b0f565b5b031561102c5760016004811115610f0a57610f09611b0f565b5b816004811115610f1d57610f1c611b0f565b5b03610f5d576040517f08c379a0000000000000000000000000000000000000000000000000000000008152600401610f5490611b8a565b60405180910390fd5b60026004811115610f7157610f70611b0f565b5b816004811115610f8457610f83611b0f565b5b03610fc4576040517f08c379a0000000000000000000000000000000000000000000000000000000008152600401610fbb90611bf6565b60405180910390fd5b60036004811115610fd857610fd7611b0f565b5b816004811115610feb57610fea611b0f565b5b0361102b576040517f08c379a000000000000000000000000000000000000000000000000000000000815260040161102290611c88565b60405180910390fd5b5b50565b6060605d73ffffffffffffffffffffffffffffffffffffffff1663d6ad57cd848460001c6040518363ffffffff1660e01b8152600401611070929190611ca8565b600060405180830381865afa15801561108d573d6000803e3d6000fd5b505050506040513d6000823e3d601f19601f820116820180604052508101906110b69190611dc3565b905092915050565b6000605d73ffffffffffffffffffffffffffffffffffffffff1663e71746b8848460f81b6040518363ffffffff1660e01b81526004016110ff929190611acb565b602060405180830381865afa15801561111c573d6000803e3d6000fd5b505050506040513d601f19601f820116820180604052508101906111409190611a67565b905092915050565b60008060ff8360001c169050601f81111561118f576040517fb3512b0c00000000000000000000000000000000000000000000000000000000815260040160405180910390fd5b80915050919050565b60007f8b73c3c69bb8fe3d512ecc4cf759cc79239f7b179b0ffacaa9a75d522b39400f7f00000000000000000000000000000000000000000000000000000000000000007f00000000000000000000000000000000000000000000000000000000000000004630604051602001611213959493929190611e0c565b60405160208183030381529060405280519060200120905090565b6000807f7fffffffffffffffffffffffffffffff5d576e7357a4501ddfe92f46681b20a08360001c1115611269576000600391509150611307565b60006001878787876040516000815260200160405260405161128e9493929190611e7b565b6020604051602081039080840390855afa1580156112b0573d6000803e3d6000fd5b505050602060405103519050600073ffffffffffffffffffffffffffffffffffffffff168173ffffffffffffffffffffffffffffffffffffffff16036112fe57600060019250925050611307565b80600092509250505b94509492505050565b6000604051905090565b600080fd5b600080fd5b600073ffffffffffffffffffffffffffffffffffffffff82169050919050565b600061134f82611324565b9050919050565b61135f81611344565b811461136a57600080fd5b50565b60008135905061137c81611356565b92915050565b600080fd5b600080fd5b600080fd5b60008083601f8401126113a7576113a6611382565b5b8235905067ffffffffffffffff8111156113c4576113c3611387565b5b6020830191508360018202830111156113e0576113df61138c565b5b9250929050565b600080600060408486031215611400576113ff61131a565b5b600061140e8682870161136d565b935050602084013567ffffffffffffffff81111561142f5761142e61131f565b5b61143b86828701611391565b92509250509250925092565b6000806020838503121561145e5761145d61131a565b5b600083013567ffffffffffffffff81111561147c5761147b61131f565b5b61148885828601611391565b92509250509250929050565b60007fff0000000000000000000000000000000000000000000000000000000000000082169050919050565b6114c981611494565b82525050565b600081519050919050565b600082825260208201905092915050565b60005b838110156115095780820151818401526020810190506114ee565b60008484015250505050565b6000601f19601f8301169050919050565b6000611531826114cf565b61153b81856114da565b935061154b8185602086016114eb565b61155481611515565b840191505092915050565b6000819050919050565b6115728161155f565b82525050565b61158181611344565b82525050565b6000819050919050565b61159a81611587565b82525050565b600081519050919050565b600082825260208201905092915050565b6000819050602082019050919050565b6115d58161155f565b82525050565b60006115e783836115cc565b60208301905092915050565b6000602082019050919050565b600061160b826115a0565b61161581856115ab565b9350611620836115bc565b8060005b8381101561165157815161163888826115db565b9750611643836115f3565b925050600181019050611624565b5085935050505092915050565b600060e082019050611673600083018a6114c0565b81810360208301526116858189611526565b905081810360408301526116998188611526565b90506116a86060830187611569565b6116b56080830186611578565b6116c260a0830185611591565b81810360c08301526116d48184611600565b905098975050505050505050565b6116eb81611587565b81146116f657600080fd5b50565b600081359050611708816116e2565b92915050565b6000806000604084860312156117275761172661131a565b5b6000611735868287016116f9565b935050602084013567ffffffffffffffff8111156117565761175561131f565b5b61176286828701611391565b92509250509250925092565b600081519050919050565b600082825260208201905092915050565b60006117958261176e565b61179f8185611779565b93506117af8185602086016114eb565b6117b881611515565b840191505092915050565b600060208201905081810360008301526117dd818461178a565b905092915050565b60006020820190506117fa6000830184611578565b92915050565b7f4f6e6c79204f776e65722063616e2063616c6c00000000000000000000000000600082015250565b60006118366013836114da565b915061184182611800565b602082019050919050565b6000602082019050818103600083015261186581611829565b9050919050565b7f4e487b7100000000000000000000000000000000000000000000000000000000600052604160045260246000fd5b60006040820190506118b06000830185611591565b6118bd6020830184611591565b9392505050565b7f454950373132207369676e657220616e64207472616e73616374696f6e20736960008201527f676e657220646f206e6f74206d61746368000000000000000000000000000000602082015250565b60006119206031836114da565b915061192b826118c4565b604082019050919050565b6000602082019050818103600083015261194f81611913565b9050919050565b7f4e487b7100000000000000000000000000000000000000000000000000000000600052602260045260246000fd5b6000600282049050600182168061199d57607f821691505b6020821081036119b0576119af611956565b5b50919050565b600081905092915050565b60006119cc8261176e565b6119d681856119b6565b93506119e68185602086016114eb565b80840191505092915050565b6000819050919050565b611a0d611a0882611494565b6119f2565b82525050565b6000611a1f82856119c1565b9150611a2b82846119fc565b6001820191508190509392505050565b611a448161155f565b8114611a4f57600080fd5b50565b600081519050611a6181611a3b565b92915050565b600060208284031215611a7d57611a7c61131a565b5b6000611a8b84828501611a52565b91505092915050565b6000606082019050611aa96000830186611569565b611ab66020830185611569565b611ac360408301846114c0565b949350505050565b6000604082019050611ae06000830185611569565b611aed60208301846114c0565b9392505050565b6000602082019050611b096000830184611569565b92915050565b7f4e487b7100000000000000000000000000000000000000000000000000000000600052602160045260246000fd5b7f45434453413a20696e76616c6964207369676e61747572650000000000000000600082015250565b6000611b746018836114da565b9150611b7f82611b3e565b602082019050919050565b60006020820190508181036000830152611ba381611b67565b9050919050565b7f45434453413a20696e76616c6964207369676e6174757265206c656e67746800600082015250565b6000611be0601f836114da565b9150611beb82611baa565b602082019050919050565b60006020820190508181036000830152611c0f81611bd3565b9050919050565b7f45434453413a20696e76616c6964207369676e6174757265202773272076616c60008201527f7565000000000000000000000000000000000000000000000000000000000000602082015250565b6000611c726022836114da565b9150611c7d82611c16565b604082019050919050565b60006020820190508181036000830152611ca181611c65565b9050919050565b6000604082019050611cbd6000830185611569565b611cca6020830184611569565b9392505050565b600080fd5b611cdf82611515565b810181811067ffffffffffffffff82111715611cfe57611cfd61186c565b5b80604052505050565b6000611d11611310565b9050611d1d8282611cd6565b919050565b600067ffffffffffffffff821115611d3d57611d3c61186c565b5b611d4682611515565b9050602081019050919050565b6000611d66611d6184611d22565b611d07565b905082815260208101848484011115611d8257611d81611cd1565b5b611d8d8482856114eb565b509392505050565b600082601f830112611daa57611da9611382565b5b8151611dba848260208601611d53565b91505092915050565b600060208284031215611dd957611dd861131a565b5b600082015167ffffffffffffffff811115611df757611df661131f565b5b611e0384828501611d95565b91505092915050565b600060a082019050611e216000830188611591565b611e2e6020830187611591565b611e3b6040830186611591565b611e486060830185611569565b611e556080830184611578565b9695505050505050565b600060ff82169050919050565b611e7581611e5f565b82525050565b6000608082019050611e906000830187611591565b611e9d6020830186611e6c565b611eaa6040830185611591565b611eb76060830184611591565b9594505050505056fea2646970667358221220de1988d17c5a92aa07e6051e43b3a3f920fe727ae7dc18030e8ca516cedd1e0f64736f6c63430008130033",
  "devdoc": {
    "events": {
      "EIP712DomainChanged()": {
        "details": "MAY be emitted to signal that the domain could have changed."
      }
    },
    "kind": "dev",
    "methods": {
      "eip712Domain()": {
        "details": "See {EIP-5267}. _Available since v4.9._"
      },
      "mint(bytes)": {
        "details": "Here instead of taking a eunit32 i am taking a bytes bcoz if i am taking a euint32 a malicious actor      can try to use the smart contract to decipher values       SO if we take a bytes input it would be like a check to see if the person giving the input knows the      value of the bytes that is being converted to euint rather than being a malicious actor trying to       just decrypt data  The bytes needs to be chacked to be a valid cipher text so that we can avoid a person trying to       use the smart contract as decryption oracle and even if the value is decrypted we can be sure       that the person who is sending the cipher text knows the underlying value    Here we are expecting a user to call the function so we using bytes to get a fresh cipher text If it was a contract calling it we would have used ----> euint256 _amount",
        "params": {
          "_amountCipherText": "the cipher text of the amount to mint"
        }
      }
    },
    "version": 1
  },
  "userdoc": {
    "kind": "user",
    "methods": {},
    "version": 1
  },
  "storageLayout": {
    "storage": [
      {
        "astId": 1701,
        "contract": "contracts/mock/EncryptedmockERC20.sol:EncryptedMOCKERC20",
        "label": "_nameFallback",
        "offset": 0,
        "slot": "0",
        "type": "t_string_storage"
      },
      {
        "astId": 1703,
        "contract": "contracts/mock/EncryptedmockERC20.sol:EncryptedMOCKERC20",
        "label": "_versionFallback",
        "offset": 0,
        "slot": "1",
        "type": "t_string_storage"
      },
      {
        "astId": 3935,
        "contract": "contracts/mock/EncryptedmockERC20.sol:EncryptedMOCKERC20",
        "label": "_balances",
        "offset": 0,
        "slot": "2",
        "type": "t_mapping(t_address,t_userDefinedValueType(euint32)6335)"
      }
    ],
    "types": {
      "t_address": {
        "encoding": "inplace",
        "label": "address",
        "numberOfBytes": "20"
      },
      "t_mapping(t_address,t_userDefinedValueType(euint32)6335)": {
        "encoding": "mapping",
        "key": "t_address",
        "label": "mapping(address => euint32)",
        "numberOfBytes": "32",
        "value": "t_userDefinedValueType(euint32)6335"
      },
      "t_string_storage": {
        "encoding": "bytes",
        "label": "string",
        "numberOfBytes": "32"
      },
      "t_userDefinedValueType(euint32)6335": {
        "encoding": "inplace",
        "label": "euint32",
        "numberOfBytes": "32"
      }
    }
  }
}