{
  "address": "0x5FbDB2315678afecb367f032d93F642f64180aa3",
  "abi": [
    {
      "inputs": [],
      "stateMutability": "nonpayable",
      "type": "constructor"
    },
    {
      "inputs": [],
      "name": "contractOwner",
      "outputs": [
        {
          "internalType": "address",
          "name": "",
          "type": "address"
        }
      ],
      "stateMutability": "view",
      "type": "function"
    },
    {
      "inputs": [
        {
          "internalType": "bytes",
          "name": "_amountCipherText",
          "type": "bytes"
        }
      ],
      "name": "mint",
      "outputs": [],
      "stateMutability": "nonpayable",
      "type": "function"
    }
  ],
  "transactionHash": "0xb03a3e34e85886dad75140a43b656066899f25e6d4ac90e0f6622ad77dbe06e0",
  "args": [],
  "numDeployments": 1,
  "solcInputHash": "1ed88f164bd033890a2012b18b755318",
  "bytecode": "0x60a060405234801561001057600080fd5b503373ffffffffffffffffffffffffffffffffffffffff1660808173ffffffffffffffffffffffffffffffffffffffff168152505060805161087361006660003960008181607701526101e501526108736000f3fe608060405234801561001057600080fd5b50600436106100365760003560e01c80637ba0e2e71461003b578063ce606ee014610057575b600080fd5b610055600480360381019061005091906104d3565b610075565b005b61005f6101e3565b60405161006c9190610561565b60405180910390f35b7f000000000000000000000000000000000000000000000000000000000000000073ffffffffffffffffffffffffffffffffffffffff163373ffffffffffffffffffffffffffffffffffffffff1614610103576040517f08c379a00000000000000000000000000000000000000000000000000000000081526004016100fa906105d9565b60405180910390fd5b600061015283838080601f016020809104026020016040519081016040528093929190818152602001838380828437600081840152601f19601f82011690508083019250505050505050610207565b905061019c6000803373ffffffffffffffffffffffffffffffffffffffff1673ffffffffffffffffffffffffffffffffffffffff168152602001908152602001600020548261021b565b6000803373ffffffffffffffffffffffffffffffffffffffff1673ffffffffffffffffffffffffffffffffffffffff16815260200190815260200160002081905550505050565b7f000000000000000000000000000000000000000000000000000000000000000081565b6000610214826002610265565b9050919050565b600061022683610313565b610237576102346000610320565b92505b61024082610313565b6102515761024e6000610320565b91505b61025d83836000610334565b905092915050565b600080838360f81b60405160200161027e9291906106b7565b6040516020818303038152906040529050605d73ffffffffffffffffffffffffffffffffffffffff16634b252ec8826040518263ffffffff1660e01b81526004016102c9919061073a565b602060405180830381865afa1580156102e6573d6000803e3d6000fd5b505050506040513d601f19601f8201168201806040525081019061030a9190610792565b91505092915050565b6000808214159050919050565b600061032d8260026103da565b9050919050565b600080821561034957600160f81b9050610351565b600060f81b90505b605d73ffffffffffffffffffffffffffffffffffffffff1663f953e4278686846040518463ffffffff1660e01b815260040161038f939291906107dd565b602060405180830381865afa1580156103ac573d6000803e3d6000fd5b505050506040513d601f19601f820116820180604052508101906103d09190610792565b9150509392505050565b6000605d73ffffffffffffffffffffffffffffffffffffffff1663e71746b8848460f81b6040518363ffffffff1660e01b815260040161041b929190610814565b602060405180830381865afa158015610438573d6000803e3d6000fd5b505050506040513d601f19601f8201168201806040525081019061045c9190610792565b905092915050565b600080fd5b600080fd5b600080fd5b600080fd5b600080fd5b60008083601f8401126104935761049261046e565b5b8235905067ffffffffffffffff8111156104b0576104af610473565b5b6020830191508360018202830111156104cc576104cb610478565b5b9250929050565b600080602083850312156104ea576104e9610464565b5b600083013567ffffffffffffffff81111561050857610507610469565b5b6105148582860161047d565b92509250509250929050565b600073ffffffffffffffffffffffffffffffffffffffff82169050919050565b600061054b82610520565b9050919050565b61055b81610540565b82525050565b60006020820190506105766000830184610552565b92915050565b600082825260208201905092915050565b7f4f6e6c79204f776e65722063616e2063616c6c00000000000000000000000000600082015250565b60006105c360138361057c565b91506105ce8261058d565b602082019050919050565b600060208201905081810360008301526105f2816105b6565b9050919050565b600081519050919050565b600081905092915050565b60005b8381101561062d578082015181840152602081019050610612565b60008484015250505050565b6000610644826105f9565b61064e8185610604565b935061065e81856020860161060f565b80840191505092915050565b60007fff0000000000000000000000000000000000000000000000000000000000000082169050919050565b6000819050919050565b6106b16106ac8261066a565b610696565b82525050565b60006106c38285610639565b91506106cf82846106a0565b6001820191508190509392505050565b600082825260208201905092915050565b6000601f19601f8301169050919050565b600061070c826105f9565b61071681856106df565b935061072681856020860161060f565b61072f816106f0565b840191505092915050565b600060208201905081810360008301526107548184610701565b905092915050565b6000819050919050565b61076f8161075c565b811461077a57600080fd5b50565b60008151905061078c81610766565b92915050565b6000602082840312156107a8576107a7610464565b5b60006107b68482850161077d565b91505092915050565b6107c88161075c565b82525050565b6107d78161066a565b82525050565b60006060820190506107f260008301866107bf565b6107ff60208301856107bf565b61080c60408301846107ce565b949350505050565b600060408201905061082960008301856107bf565b61083660208301846107ce565b939250505056fea2646970667358221220f1b0398ead99b02b0be90f094ce17c143eacc4f80a2d119c4e592e41af67a0ae64736f6c63430008130033",
  "devdoc": {
    "kind": "dev",
    "methods": {
      "mint(bytes)": {
        "details": "Here instead of taking a eunit32 i am taking a bytes bcoz if i am taking a euint32 a malicious actor      can try to use the smart contract to decipher values       SO if we take a bytes input it would be like a check to see if the person giving the input knows the      value of the bytes that is being converted to euint rather than being a malicious actor trying to       just decrypt data  The bytes needs to be chacked to be a valid cipher text so that we can avoid a person trying to       use the smart contract as decryption oracle and even if the value is decrypted we can be sure       that the person who is sending the cipher text knows the underlying value    Here we are expecting a user to call the function so we using bytes to get a fresh cipher text If it was a contract calling it we would have used ----> euint256 _amount",
        "params": {
          "_amountCipherText": "the cipher text of the amount to mint"
        }
      }
    },
    "version": 1
  },
  "userdoc": {
    "kind": "user",
    "methods": {},
    "version": 1
  },
  "storageLayout": {
    "storage": [
      {
        "astId": 2919,
        "contract": "contracts/mock/EncryptedmockERC20.sol:EncryptedMOCKERC20",
        "label": "_balances",
        "offset": 0,
        "slot": "0",
        "type": "t_mapping(t_address,t_userDefinedValueType(euint32)4847)"
      }
    ],
    "types": {
      "t_address": {
        "encoding": "inplace",
        "label": "address",
        "numberOfBytes": "20"
      },
      "t_mapping(t_address,t_userDefinedValueType(euint32)4847)": {
        "encoding": "mapping",
        "key": "t_address",
        "label": "mapping(address => euint32)",
        "numberOfBytes": "32",
        "value": "t_userDefinedValueType(euint32)4847"
      },
      "t_userDefinedValueType(euint32)4847": {
        "encoding": "inplace",
        "label": "euint32",
        "numberOfBytes": "32"
      }
    }
  }
}