{
  "address": "0x3b79dc944514d69a59159bC243BE2c0737947D0f",
  "abi": [
    {
      "anonymous": false,
      "inputs": [
        {
          "indexed": true,
          "internalType": "address",
          "name": "token0",
          "type": "address"
        },
        {
          "indexed": true,
          "internalType": "address",
          "name": "token1",
          "type": "address"
        },
        {
          "indexed": false,
          "internalType": "address",
          "name": "pair",
          "type": "address"
        },
        {
          "indexed": false,
          "internalType": "uint256",
          "name": "",
          "type": "uint256"
        }
      ],
      "name": "PairCreated",
      "type": "event"
    },
    {
      "inputs": [
        {
          "internalType": "uint256",
          "name": "",
          "type": "uint256"
        }
      ],
      "name": "allPairs",
      "outputs": [
        {
          "internalType": "address",
          "name": "",
          "type": "address"
        }
      ],
      "stateMutability": "view",
      "type": "function"
    },
    {
      "inputs": [],
      "name": "allPairsLength",
      "outputs": [
        {
          "internalType": "uint256",
          "name": "",
          "type": "uint256"
        }
      ],
      "stateMutability": "view",
      "type": "function"
    },
    {
      "inputs": [
        {
          "internalType": "address",
          "name": "tokenA",
          "type": "address"
        },
        {
          "internalType": "address",
          "name": "tokenB",
          "type": "address"
        }
      ],
      "name": "createPair",
      "outputs": [
        {
          "internalType": "address",
          "name": "pair",
          "type": "address"
        }
      ],
      "stateMutability": "nonpayable",
      "type": "function"
    },
    {
      "inputs": [
        {
          "internalType": "address",
          "name": "",
          "type": "address"
        },
        {
          "internalType": "address",
          "name": "",
          "type": "address"
        }
      ],
      "name": "getPair",
      "outputs": [
        {
          "internalType": "address",
          "name": "",
          "type": "address"
        }
      ],
      "stateMutability": "view",
      "type": "function"
    }
  ],
  "transactionHash": "0x13b69c61dbe137765602da531eea0411e3b7a7251c39fb7a43e86d4844a65a98",
  "args": [],
  "numDeployments": 1,
  "solcInputHash": "3e68b26ddc4d50c669fc913c4af72cbe",
  "bytecode": "0x608060405234801561001057600080fd5b506123c8806100206000396000f3fe608060405234801561001057600080fd5b506004361061004c5760003560e01c80631e3dd18b14610051578063574f2ba314610081578063c9c653961461009f578063e6a43905146100cf575b600080fd5b61006b6004803603810190610066919061071d565b6100ff565b604051610078919061078b565b60405180910390f35b61008961013e565b60405161009691906107b5565b60405180910390f35b6100b960048036038101906100b491906107fc565b61014b565b6040516100c6919061078b565b60405180910390f35b6100e960048036038101906100e491906107fc565b610693565b6040516100f6919061078b565b60405180910390f35b6001818154811061010f57600080fd5b906000526020600020016000915054906101000a900473ffffffffffffffffffffffffffffffffffffffff1681565b6000600180549050905090565b60008173ffffffffffffffffffffffffffffffffffffffff168373ffffffffffffffffffffffffffffffffffffffff16036101bb576040517f08c379a00000000000000000000000000000000000000000000000000000000081526004016101b290610899565b60405180910390fd5b6000808373ffffffffffffffffffffffffffffffffffffffff168573ffffffffffffffffffffffffffffffffffffffff16106101f85783856101fb565b84845b91509150600073ffffffffffffffffffffffffffffffffffffffff168273ffffffffffffffffffffffffffffffffffffffff160361026e576040517f08c379a000000000000000000000000000000000000000000000000000000000815260040161026590610905565b60405180910390fd5b600073ffffffffffffffffffffffffffffffffffffffff166000808473ffffffffffffffffffffffffffffffffffffffff1673ffffffffffffffffffffffffffffffffffffffff16815260200190815260200160002060008373ffffffffffffffffffffffffffffffffffffffff1673ffffffffffffffffffffffffffffffffffffffff16815260200190815260200160002060009054906101000a900473ffffffffffffffffffffffffffffffffffffffff1673ffffffffffffffffffffffffffffffffffffffff1614610378576040517f08c379a000000000000000000000000000000000000000000000000000000000815260040161036f90610971565b60405180910390fd5b60006040518060200161038a906106d5565b6020820181038252601f19601f820116604052509050600083836040516020016103b59291906109d9565b604051602081830303815290604052805190602001209050808251602084016000f594508473ffffffffffffffffffffffffffffffffffffffff1663485cc95585856040518363ffffffff1660e01b8152600401610414929190610a05565b600060405180830381600087803b15801561042e57600080fd5b505af1158015610442573d6000803e3d6000fd5b50505050846000808673ffffffffffffffffffffffffffffffffffffffff1673ffffffffffffffffffffffffffffffffffffffff16815260200190815260200160002060008573ffffffffffffffffffffffffffffffffffffffff1673ffffffffffffffffffffffffffffffffffffffff16815260200190815260200160002060006101000a81548173ffffffffffffffffffffffffffffffffffffffff021916908373ffffffffffffffffffffffffffffffffffffffff160217905550846000808573ffffffffffffffffffffffffffffffffffffffff1673ffffffffffffffffffffffffffffffffffffffff16815260200190815260200160002060008673ffffffffffffffffffffffffffffffffffffffff1673ffffffffffffffffffffffffffffffffffffffff16815260200190815260200160002060006101000a81548173ffffffffffffffffffffffffffffffffffffffff021916908373ffffffffffffffffffffffffffffffffffffffff1602179055506001859080600181540180825580915050600190039060005260206000200160009091909190916101000a81548173ffffffffffffffffffffffffffffffffffffffff021916908373ffffffffffffffffffffffffffffffffffffffff1602179055508273ffffffffffffffffffffffffffffffffffffffff168473ffffffffffffffffffffffffffffffffffffffff167f0d3648bd0f6ba80134a33ba9275ac585d9d315f0ad8355cddefde31afa28d0e987600180549050604051610681929190610a2e565b60405180910390a35050505092915050565b60006020528160005260406000206020528060005260406000206000915091509054906101000a900473ffffffffffffffffffffffffffffffffffffffff1681565b61193b80610a5883390190565b600080fd5b6000819050919050565b6106fa816106e7565b811461070557600080fd5b50565b600081359050610717816106f1565b92915050565b600060208284031215610733576107326106e2565b5b600061074184828501610708565b91505092915050565b600073ffffffffffffffffffffffffffffffffffffffff82169050919050565b60006107758261074a565b9050919050565b6107858161076a565b82525050565b60006020820190506107a0600083018461077c565b92915050565b6107af816106e7565b82525050565b60006020820190506107ca60008301846107a6565b92915050565b6107d98161076a565b81146107e457600080fd5b50565b6000813590506107f6816107d0565b92915050565b60008060408385031215610813576108126106e2565b5b6000610821858286016107e7565b9250506020610832858286016107e7565b9150509250929050565b600082825260208201905092915050565b7f4944454e544943414c5f41444452455353455300000000000000000000000000600082015250565b600061088360138361083c565b915061088e8261084d565b602082019050919050565b600060208201905081810360008301526108b281610876565b9050919050565b7f5a45524f5f414444524553530000000000000000000000000000000000000000600082015250565b60006108ef600c8361083c565b91506108fa826108b9565b602082019050919050565b6000602082019050818103600083015261091e816108e2565b9050919050565b7f556e697377617056323a20504149525f45584953545300000000000000000000600082015250565b600061095b60168361083c565b915061096682610925565b602082019050919050565b6000602082019050818103600083015261098a8161094e565b9050919050565b60008160601b9050919050565b60006109a982610991565b9050919050565b60006109bb8261099e565b9050919050565b6109d36109ce8261076a565b6109b0565b82525050565b60006109e582856109c2565b6014820191506109f582846109c2565b6014820191508190509392505050565b6000604082019050610a1a600083018561077c565b610a27602083018461077c565b9392505050565b6000604082019050610a43600083018561077c565b610a5060208301846107a6565b939250505056fe60a060405234801561001057600080fd5b503373ffffffffffffffffffffffffffffffffffffffff1660808173ffffffffffffffffffffffffffffffffffffffff16815250506080516118d4610067600039600081816102710152610a8d01526118d46000f3fe608060405234801561001057600080fd5b50600436106100a95760003560e01c80635a76f25e116100715780635a76f25e1461015557806370a08231146101735780639cd441da146101a3578063c45a0155146101d3578063d004f0f7146101f1578063d21220a714610221576100a9565b80630dfe1681146100ae57806318160ddd146100cc578063443cb4bc146100ea578063485cc9551461010857806355ab13ef14610124575b600080fd5b6100b661023f565b6040516100c3919061119a565b60405180910390f35b6100d4610263565b6040516100e191906111ce565b60405180910390f35b6100f2610269565b6040516100ff91906111ce565b60405180910390f35b610122600480360381019061011d919061122c565b61026f565b005b61013e60048036038101906101399190611298565b610382565b60405161014c9291906112c5565b60405180910390f35b61015d6106ba565b60405161016a91906111ce565b60405180910390f35b61018d600480360381019061018891906112ee565b6106c0565b60405161019a91906111ce565b60405180910390f35b6101bd60048036038101906101b8919061131b565b6106d8565b6040516101ca91906111ce565b60405180910390f35b6101db610a8b565b6040516101e8919061136a565b60405180910390f35b61020b60048036038101906102069190611385565b610aaf565b60405161021891906111ce565b60405180910390f35b610229610f69565b604051610236919061119a565b60405180910390f35b60008054906101000a900473ffffffffffffffffffffffffffffffffffffffff1681565b60045481565b60025481565b7f000000000000000000000000000000000000000000000000000000000000000073ffffffffffffffffffffffffffffffffffffffff163373ffffffffffffffffffffffffffffffffffffffff16146102fd576040517f08c379a00000000000000000000000000000000000000000000000000000000081526004016102f490611422565b60405180910390fd5b816000806101000a81548173ffffffffffffffffffffffffffffffffffffffff021916908373ffffffffffffffffffffffffffffffffffffffff16021790555080600160006101000a81548173ffffffffffffffffffffffffffffffffffffffff021916908373ffffffffffffffffffffffffffffffffffffffff1602179055505050565b60008060008060009054906101000a900473ffffffffffffffffffffffffffffffffffffffff1673ffffffffffffffffffffffffffffffffffffffff166370a08231306040518263ffffffff1660e01b81526004016103e1919061136a565b602060405180830381865afa1580156103fe573d6000803e3d6000fd5b505050506040513d601f19601f820116820180604052508101906104229190611457565b90506000600160009054906101000a900473ffffffffffffffffffffffffffffffffffffffff1673ffffffffffffffffffffffffffffffffffffffff166370a08231306040518263ffffffff1660e01b8152600401610481919061136a565b602060405180830381865afa15801561049e573d6000803e3d6000fd5b505050506040513d601f19601f820116820180604052508101906104c29190611457565b905060045482866104d391906114b3565b6104dd9190611524565b935060045481866104ee91906114b3565b6104f89190611524565b925060008411801561050a5750600083115b610549576040517f08c379a0000000000000000000000000000000000000000000000000000000008152600401610540906115a1565b60405180910390fd5b6105533386610f8f565b610573848361056291906115c1565b848361056e91906115c1565b611002565b60008054906101000a900473ffffffffffffffffffffffffffffffffffffffff1673ffffffffffffffffffffffffffffffffffffffff1663a9059cbb33866040518363ffffffff1660e01b81526004016105ce9291906115f5565b6020604051808303816000875af11580156105ed573d6000803e3d6000fd5b505050506040513d601f19601f820116820180604052508101906106119190611656565b50600160009054906101000a900473ffffffffffffffffffffffffffffffffffffffff1673ffffffffffffffffffffffffffffffffffffffff1663a9059cbb33856040518363ffffffff1660e01b815260040161066f9291906115f5565b6020604051808303816000875af115801561068e573d6000803e3d6000fd5b505050506040513d601f19601f820116820180604052508101906106b29190611656565b505050915091565b60035481565b60056020528060005260406000206000915090505481565b60008060009054906101000a900473ffffffffffffffffffffffffffffffffffffffff1673ffffffffffffffffffffffffffffffffffffffff166323b872dd3330866040518463ffffffff1660e01b815260040161073893929190611683565b6020604051808303816000875af1158015610757573d6000803e3d6000fd5b505050506040513d601f19601f8201168201806040525081019061077b9190611656565b50600160009054906101000a900473ffffffffffffffffffffffffffffffffffffffff1673ffffffffffffffffffffffffffffffffffffffff166323b872dd3330856040518463ffffffff1660e01b81526004016107db93929190611683565b6020604051808303816000875af11580156107fa573d6000803e3d6000fd5b505050506040513d601f19601f8201168201806040525081019061081e9190611656565b506000600254118061083257506000600354115b15610894578260035461084591906114b3565b8260025461085391906114b3565b14610893576040517f08c379a000000000000000000000000000000000000000000000000000000000815260040161088a90611706565b60405180910390fd5b5b6000600454036108b9576108b282846108ad91906114b3565b611014565b90506108fa565b6108f7600254600454856108cd91906114b3565b6108d79190611524565b600354600454856108e891906114b3565b6108f29190611524565b61108e565b90505b6000811161093d576040517f08c379a000000000000000000000000000000000000000000000000000000000815260040161093490611772565b60405180910390fd5b61094733826110a8565b610a8560008054906101000a900473ffffffffffffffffffffffffffffffffffffffff1673ffffffffffffffffffffffffffffffffffffffff166370a08231306040518263ffffffff1660e01b81526004016109a3919061136a565b602060405180830381865afa1580156109c0573d6000803e3d6000fd5b505050506040513d601f19601f820116820180604052508101906109e49190611457565b600160009054906101000a900473ffffffffffffffffffffffffffffffffffffffff1673ffffffffffffffffffffffffffffffffffffffff166370a08231306040518263ffffffff1660e01b8152600401610a3f919061136a565b602060405180830381865afa158015610a5c573d6000803e3d6000fd5b505050506040513d601f19601f82011682018060405250810190610a809190611457565b611002565b92915050565b7f000000000000000000000000000000000000000000000000000000000000000081565b60008060009054906101000a900473ffffffffffffffffffffffffffffffffffffffff1673ffffffffffffffffffffffffffffffffffffffff168373ffffffffffffffffffffffffffffffffffffffff161480610b595750600160009054906101000a900473ffffffffffffffffffffffffffffffffffffffff1673ffffffffffffffffffffffffffffffffffffffff168373ffffffffffffffffffffffffffffffffffffffff16145b610b98576040517f08c379a0000000000000000000000000000000000000000000000000000000008152600401610b8f906117de565b60405180910390fd5b60008211610bdb576040517f08c379a0000000000000000000000000000000000000000000000000000000008152600401610bd29061184a565b60405180910390fd5b60008060009054906101000a900473ffffffffffffffffffffffffffffffffffffffff1673ffffffffffffffffffffffffffffffffffffffff168473ffffffffffffffffffffffffffffffffffffffff1614905060008060008084610c8957600160009054906101000a900473ffffffffffffffffffffffffffffffffffffffff1660008054906101000a900473ffffffffffffffffffffffffffffffffffffffff16600354600254610cd4565b60008054906101000a900473ffffffffffffffffffffffffffffffffffffffff16600160009054906101000a900473ffffffffffffffffffffffffffffffffffffffff166002546003545b93509350935093508373ffffffffffffffffffffffffffffffffffffffff166323b872dd33308a6040518463ffffffff1660e01b8152600401610d1993929190611683565b6020604051808303816000875af1158015610d38573d6000803e3d6000fd5b505050506040513d601f19601f82011682018060405250810190610d5c9190611656565b5060006103e86103e589610d7091906114b3565b610d7a9190611524565b90508083610d88919061186a565b8183610d9491906114b3565b610d9e9190611524565b96508373ffffffffffffffffffffffffffffffffffffffff1663a9059cbb33896040518363ffffffff1660e01b8152600401610ddb9291906115f5565b6020604051808303816000875af1158015610dfa573d6000803e3d6000fd5b505050506040513d601f19601f82011682018060405250810190610e1e9190611656565b50610f5d60008054906101000a900473ffffffffffffffffffffffffffffffffffffffff1673ffffffffffffffffffffffffffffffffffffffff166370a08231306040518263ffffffff1660e01b8152600401610e7b919061136a565b602060405180830381865afa158015610e98573d6000803e3d6000fd5b505050506040513d601f19601f82011682018060405250810190610ebc9190611457565b600160009054906101000a900473ffffffffffffffffffffffffffffffffffffffff1673ffffffffffffffffffffffffffffffffffffffff166370a08231306040518263ffffffff1660e01b8152600401610f17919061136a565b602060405180830381865afa158015610f34573d6000803e3d6000fd5b505050506040513d601f19601f82011682018060405250810190610f589190611457565b611002565b50505050505092915050565b600160009054906101000a900473ffffffffffffffffffffffffffffffffffffffff1681565b80600560008473ffffffffffffffffffffffffffffffffffffffff1673ffffffffffffffffffffffffffffffffffffffff1681526020019081526020016000206000828254610fde91906115c1565b925050819055508060046000828254610ff791906115c1565b925050819055505050565b81600281905550806003819055505050565b6000600382111561107b57819050600060016002846110339190611524565b61103d919061186a565b90505b8181101561107557809150600281828561105a9190611524565b611064919061186a565b61106e9190611524565b9050611040565b50611089565b6000821461108857600190505b5b919050565b60008183111561109e57816110a0565b825b905092915050565b80600560008473ffffffffffffffffffffffffffffffffffffffff1673ffffffffffffffffffffffffffffffffffffffff16815260200190815260200160002060008282546110f7919061186a565b925050819055508060046000828254611110919061186a565b925050819055505050565b600073ffffffffffffffffffffffffffffffffffffffff82169050919050565b6000819050919050565b600061116061115b6111568461111b565b61113b565b61111b565b9050919050565b600061117282611145565b9050919050565b600061118482611167565b9050919050565b61119481611179565b82525050565b60006020820190506111af600083018461118b565b92915050565b6000819050919050565b6111c8816111b5565b82525050565b60006020820190506111e360008301846111bf565b92915050565b600080fd5b60006111f98261111b565b9050919050565b611209816111ee565b811461121457600080fd5b50565b60008135905061122681611200565b92915050565b60008060408385031215611243576112426111e9565b5b600061125185828601611217565b925050602061126285828601611217565b9150509250929050565b611275816111b5565b811461128057600080fd5b50565b6000813590506112928161126c565b92915050565b6000602082840312156112ae576112ad6111e9565b5b60006112bc84828501611283565b91505092915050565b60006040820190506112da60008301856111bf565b6112e760208301846111bf565b9392505050565b600060208284031215611304576113036111e9565b5b600061131284828501611217565b91505092915050565b60008060408385031215611332576113316111e9565b5b600061134085828601611283565b925050602061135185828601611283565b9150509250929050565b611364816111ee565b82525050565b600060208201905061137f600083018461135b565b92915050565b6000806040838503121561139c5761139b6111e9565b5b60006113aa85828601611217565b92505060206113bb85828601611283565b9150509250929050565b600082825260208201905092915050565b7f464f5242494444454e0000000000000000000000000000000000000000000000600082015250565b600061140c6009836113c5565b9150611417826113d6565b602082019050919050565b6000602082019050818103600083015261143b816113ff565b9050919050565b6000815190506114518161126c565b92915050565b60006020828403121561146d5761146c6111e9565b5b600061147b84828501611442565b91505092915050565b7f4e487b7100000000000000000000000000000000000000000000000000000000600052601160045260246000fd5b60006114be826111b5565b91506114c9836111b5565b92508282026114d7816111b5565b915082820484148315176114ee576114ed611484565b5b5092915050565b7f4e487b7100000000000000000000000000000000000000000000000000000000600052601260045260246000fd5b600061152f826111b5565b915061153a836111b5565b92508261154a576115496114f5565b5b828204905092915050565b7f616d6f756e7430206f7220616d6f756e7431206973203c203000000000000000600082015250565b600061158b6019836113c5565b915061159682611555565b602082019050919050565b600060208201905081810360008301526115ba8161157e565b9050919050565b60006115cc826111b5565b91506115d7836111b5565b92508282039050818111156115ef576115ee611484565b5b92915050565b600060408201905061160a600083018561135b565b61161760208301846111bf565b9392505050565b60008115159050919050565b6116338161161e565b811461163e57600080fd5b50565b6000815190506116508161162a565b92915050565b60006020828403121561166c5761166b6111e9565b5b600061167a84828501611641565b91505092915050565b6000606082019050611698600083018661135b565b6116a5602083018561135b565b6116b260408301846111bf565b949350505050565b7f64792f647820213d20792f780000000000000000000000000000000000000000600082015250565b60006116f0600c836113c5565b91506116fb826116ba565b602082019050919050565b6000602082019050818103600083015261171f816116e3565b9050919050565b7f6572726f7220736861726573203c203000000000000000000000000000000000600082015250565b600061175c6010836113c5565b915061176782611726565b602082019050919050565b6000602082019050818103600083015261178b8161174f565b9050919050565b7f696e76616c696420746f6b656e00000000000000000000000000000000000000600082015250565b60006117c8600d836113c5565b91506117d382611792565b602082019050919050565b600060208201905081810360008301526117f7816117bb565b9050919050565b7f616d6f756e7420696e203d203000000000000000000000000000000000000000600082015250565b6000611834600d836113c5565b915061183f826117fe565b602082019050919050565b6000602082019050818103600083015261186381611827565b9050919050565b6000611875826111b5565b9150611880836111b5565b925082820190508082111561189857611897611484565b5b9291505056fea2646970667358221220dd9a84879057d79edaaafd41a2286e3ea672170aa51186a00e84b72bbac9a1d164736f6c63430008130033a26469706673582212202e1e0fdb70772ad24a899b38131a5438eb7d92109515460cb0b9ffcee93adf0064736f6c63430008130033",
  "devdoc": {
    "kind": "dev",
    "methods": {},
    "version": 1
  },
  "userdoc": {
    "kind": "user",
    "methods": {},
    "version": 1
  },
  "storageLayout": {
    "storage": [
      {
        "astId": 748,
        "contract": "contracts/Test/Factory.sol:Factory",
        "label": "getPair",
        "offset": 0,
        "slot": "0",
        "type": "t_mapping(t_address,t_mapping(t_address,t_address))"
      },
      {
        "astId": 751,
        "contract": "contracts/Test/Factory.sol:Factory",
        "label": "allPairs",
        "offset": 0,
        "slot": "1",
        "type": "t_array(t_address)dyn_storage"
      }
    ],
    "types": {
      "t_address": {
        "encoding": "inplace",
        "label": "address",
        "numberOfBytes": "20"
      },
      "t_array(t_address)dyn_storage": {
        "base": "t_address",
        "encoding": "dynamic_array",
        "label": "address[]",
        "numberOfBytes": "32"
      },
      "t_mapping(t_address,t_address)": {
        "encoding": "mapping",
        "key": "t_address",
        "label": "mapping(address => address)",
        "numberOfBytes": "32",
        "value": "t_address"
      },
      "t_mapping(t_address,t_mapping(t_address,t_address))": {
        "encoding": "mapping",
        "key": "t_address",
        "label": "mapping(address => mapping(address => address))",
        "numberOfBytes": "32",
        "value": "t_mapping(t_address,t_address)"
      }
    }
  }
}