{
  "address": "0x4E82d88Fa6c0a85B60d2A8e1b83e5366Bc9C3A7e",
  "abi": [
    {
      "inputs": [],
      "stateMutability": "nonpayable",
      "type": "constructor"
    },
    {
      "inputs": [],
      "name": "InvalidShortString",
      "type": "error"
    },
    {
      "inputs": [
        {
          "internalType": "string",
          "name": "str",
          "type": "string"
        }
      ],
      "name": "StringTooLong",
      "type": "error"
    },
    {
      "anonymous": false,
      "inputs": [],
      "name": "EIP712DomainChanged",
      "type": "event"
    },
    {
      "inputs": [
        {
          "internalType": "address",
          "name": "spender",
          "type": "address"
        },
        {
          "internalType": "bytes32",
          "name": "publicKey",
          "type": "bytes32"
        },
        {
          "internalType": "bytes",
          "name": "signature",
          "type": "bytes"
        }
      ],
      "name": "allowance",
      "outputs": [
        {
          "internalType": "bytes",
          "name": "",
          "type": "bytes"
        }
      ],
      "stateMutability": "view",
      "type": "function"
    },
    {
      "inputs": [
        {
          "internalType": "address",
          "name": "spender",
          "type": "address"
        },
        {
          "internalType": "bytes",
          "name": "encryptedAmount",
          "type": "bytes"
        }
      ],
      "name": "approve",
      "outputs": [],
      "stateMutability": "nonpayable",
      "type": "function"
    },
    {
      "inputs": [
        {
          "internalType": "bytes32",
          "name": "publicKey",
          "type": "bytes32"
        },
        {
          "internalType": "bytes",
          "name": "signature",
          "type": "bytes"
        }
      ],
      "name": "balanceOf",
      "outputs": [
        {
          "internalType": "bytes",
          "name": "",
          "type": "bytes"
        }
      ],
      "stateMutability": "view",
      "type": "function"
    },
    {
      "inputs": [],
      "name": "contractOwner",
      "outputs": [
        {
          "internalType": "address",
          "name": "",
          "type": "address"
        }
      ],
      "stateMutability": "view",
      "type": "function"
    },
    {
      "inputs": [],
      "name": "decimals",
      "outputs": [
        {
          "internalType": "uint8",
          "name": "",
          "type": "uint8"
        }
      ],
      "stateMutability": "view",
      "type": "function"
    },
    {
      "inputs": [],
      "name": "eip712Domain",
      "outputs": [
        {
          "internalType": "bytes1",
          "name": "fields",
          "type": "bytes1"
        },
        {
          "internalType": "string",
          "name": "name",
          "type": "string"
        },
        {
          "internalType": "string",
          "name": "version",
          "type": "string"
        },
        {
          "internalType": "uint256",
          "name": "chainId",
          "type": "uint256"
        },
        {
          "internalType": "address",
          "name": "verifyingContract",
          "type": "address"
        },
        {
          "internalType": "bytes32",
          "name": "salt",
          "type": "bytes32"
        },
        {
          "internalType": "uint256[]",
          "name": "extensions",
          "type": "uint256[]"
        }
      ],
      "stateMutability": "view",
      "type": "function"
    },
    {
      "inputs": [
        {
          "internalType": "bytes32",
          "name": "publicKey",
          "type": "bytes32"
        },
        {
          "internalType": "bytes",
          "name": "signature",
          "type": "bytes"
        }
      ],
      "name": "getTotalSupply",
      "outputs": [
        {
          "internalType": "bytes",
          "name": "",
          "type": "bytes"
        }
      ],
      "stateMutability": "view",
      "type": "function"
    },
    {
      "inputs": [
        {
          "internalType": "bytes",
          "name": "encryptedAmount",
          "type": "bytes"
        }
      ],
      "name": "mint",
      "outputs": [],
      "stateMutability": "nonpayable",
      "type": "function"
    },
    {
      "inputs": [],
      "name": "name",
      "outputs": [
        {
          "internalType": "string",
          "name": "",
          "type": "string"
        }
      ],
      "stateMutability": "view",
      "type": "function"
    },
    {
      "inputs": [],
      "name": "symbol",
      "outputs": [
        {
          "internalType": "string",
          "name": "",
          "type": "string"
        }
      ],
      "stateMutability": "view",
      "type": "function"
    },
    {
      "inputs": [
        {
          "internalType": "address",
          "name": "to",
          "type": "address"
        },
        {
          "internalType": "bytes",
          "name": "encryptedAmount",
          "type": "bytes"
        }
      ],
      "name": "transfer",
      "outputs": [],
      "stateMutability": "nonpayable",
      "type": "function"
    },
    {
      "inputs": [
        {
          "internalType": "address",
          "name": "to",
          "type": "address"
        },
        {
          "internalType": "euint32",
          "name": "amount",
          "type": "uint256"
        }
      ],
      "name": "transfer",
      "outputs": [],
      "stateMutability": "nonpayable",
      "type": "function"
    },
    {
      "inputs": [
        {
          "internalType": "address",
          "name": "from",
          "type": "address"
        },
        {
          "internalType": "address",
          "name": "to",
          "type": "address"
        },
        {
          "internalType": "euint32",
          "name": "amount",
          "type": "uint256"
        }
      ],
      "name": "transferFrom",
      "outputs": [],
      "stateMutability": "nonpayable",
      "type": "function"
    },
    {
      "inputs": [
        {
          "internalType": "address",
          "name": "from",
          "type": "address"
        },
        {
          "internalType": "address",
          "name": "to",
          "type": "address"
        },
        {
          "internalType": "bytes",
          "name": "encryptedAmount",
          "type": "bytes"
        }
      ],
      "name": "transferFrom",
      "outputs": [],
      "stateMutability": "nonpayable",
      "type": "function"
    }
  ],
  "transactionHash": "0x79e7b5cdc1a59a64206be71c30cd46b110f25b67a9c17e85072eaf0f8129175b",
  "args": [],
  "numDeployments": 1,
  "solcInputHash": "78a857204c3289bd812d56e2c1bb97ff",
  "bytecode": "0x6101606040523480156200001257600080fd5b506040518060400160405280601381526020017f417574686f72697a6174696f6e20746f6b656e000000000000000000000000008152506040518060400160405280600181526020017f31000000000000000000000000000000000000000000000000000000000000008152508181620000976000836200017a60201b90919060201c565b6101208181525050620000b56001826200017a60201b90919060201c565b6101408181525050818051906020012060e08181525050808051906020012061010081815250504660a08181525050620000f4620001d260201b60201c565b608081815250503073ffffffffffffffffffffffffffffffffffffffff1660c08173ffffffffffffffffffffffffffffffffffffffff16815250505050505033600660006101000a81548173ffffffffffffffffffffffffffffffffffffffff021916908373ffffffffffffffffffffffffffffffffffffffff1602179055506200082a565b6000602083511015620001a05762000198836200022f60201b60201c565b9050620001cc565b82620001b2836200029c60201b60201c565b6000019081620001c3919062000520565b5060ff60001b90505b92915050565b60007f8b73c3c69bb8fe3d512ecc4cf759cc79239f7b179b0ffacaa9a75d522b39400f60e0516101005146306040516020016200021495949392919062000678565b60405160208183030381529060405280519060200120905090565b600080829050601f815111156200027f57826040517f305a27a900000000000000000000000000000000000000000000000000000000815260040162000276919062000764565b60405180910390fd5b8051816200028d90620007ba565b60001c1760001b915050919050565b6000819050919050565b600081519050919050565b7f4e487b7100000000000000000000000000000000000000000000000000000000600052604160045260246000fd5b7f4e487b7100000000000000000000000000000000000000000000000000000000600052602260045260246000fd5b600060028204905060018216806200032857607f821691505b6020821081036200033e576200033d620002e0565b5b50919050565b60008190508160005260206000209050919050565b60006020601f8301049050919050565b600082821b905092915050565b600060088302620003a87fffffffffffffffffffffffffffffffffffffffffffffffffffffffffffffffff8262000369565b620003b4868362000369565b95508019841693508086168417925050509392505050565b6000819050919050565b6000819050919050565b600062000401620003fb620003f584620003cc565b620003d6565b620003cc565b9050919050565b6000819050919050565b6200041d83620003e0565b620004356200042c8262000408565b84845462000376565b825550505050565b600090565b6200044c6200043d565b6200045981848462000412565b505050565b5b8181101562000481576200047560008262000442565b6001810190506200045f565b5050565b601f821115620004d0576200049a8162000344565b620004a58462000359565b81016020851015620004b5578190505b620004cd620004c48562000359565b8301826200045e565b50505b505050565b600082821c905092915050565b6000620004f560001984600802620004d5565b1980831691505092915050565b6000620005108383620004e2565b9150826002028217905092915050565b6200052b82620002a6565b67ffffffffffffffff811115620005475762000546620002b1565b5b6200055382546200030f565b6200056082828562000485565b600060209050601f83116001811462000598576000841562000583578287015190505b6200058f858262000502565b865550620005ff565b601f198416620005a88662000344565b60005b82811015620005d257848901518255600182019150602085019450602081019050620005ab565b86831015620005f25784890151620005ee601f891682620004e2565b8355505b6001600288020188555050505b505050505050565b6000819050919050565b6200061c8162000607565b82525050565b6200062d81620003cc565b82525050565b600073ffffffffffffffffffffffffffffffffffffffff82169050919050565b6000620006608262000633565b9050919050565b620006728162000653565b82525050565b600060a0820190506200068f600083018862000611565b6200069e602083018762000611565b620006ad604083018662000611565b620006bc606083018562000622565b620006cb608083018462000667565b9695505050505050565b600082825260208201905092915050565b60005b8381101562000706578082015181840152602081019050620006e9565b60008484015250505050565b6000601f19601f8301169050919050565b60006200073082620002a6565b6200073c8185620006d5565b93506200074e818560208601620006e6565b620007598162000712565b840191505092915050565b6000602082019050818103600083015262000780818462000723565b905092915050565b600081519050919050565b6000819050602082019050919050565b6000620007b1825162000607565b80915050919050565b6000620007c78262000788565b82620007d38462000793565b9050620007e081620007a3565b9250602082101562000823576200081e7fffffffffffffffffffffffffffffffffffffffffffffffffffffffffffffffff8360200360080262000369565b831692505b5050919050565b60805160a05160c05160e051610100516101205161014051612832620008856000396000610749015260006107150152600061177c0152600061175b0152600061111f015260006111750152600061119e01526128326000f3fe608060405234801561001057600080fd5b50600436106100ea5760003560e01c80637ba0e2e71161008c57806395d89b411161006657806395d89b411461023b578063a9059cbb14610259578063b6ce514b14610275578063ce606ee0146102a5576100ea565b80637ba0e2e7146101cb57806384b0196e146101e75780638ff9e2f51461020b576100ea565b806329723511116100c85780632972351114610145578063313ce56714610161578063499726631461017f5780637b7c65c91461019b576100ea565b8063014647f4146100ef57806306fdde031461010b57806323b872dd14610129575b600080fd5b61010960048036038101906101049190611bab565b6102c3565b005b610113610325565b6040516101209190611c9b565b60405180910390f35b610143600480360381019061013e9190611cf3565b61035e565b005b61015f600480360381019061015a9190611bab565b61037f565b005b6101696103da565b6040516101769190611d62565b60405180910390f35b61019960048036038101906101949190611d7d565b6103df565b005b6101b560048036038101906101b09190611e27565b61043c565b6040516101c29190611edc565b60405180910390f35b6101e560048036038101906101e09190611efe565b610570565b005b6101ef610702565b6040516102029796959493929190612071565b60405180910390f35b61022560048036038101906102209190611e27565b610804565b6040516102329190611edc565b60405180910390f35b610243610975565b6040516102509190611c9b565b60405180910390f35b610273600480360381019061026e91906120f5565b6109ae565b005b61028f600480360381019061028a9190612135565b6109bd565b60405161029c9190611edc565b60405180910390f35b6102ad610afd565b6040516102ba91906121a9565b60405180910390f35b600033905061031f818561031a86868080601f016020809104026020016040519081016040528093929190818152602001838380828437600081840152601f19601f82011690508083019250505050505050610b23565b610b37565b50505050565b6040518060400160405280601581526020017f577261707065642045524332302050726976617465000000000000000000000081525081565b600033905061036e848284610bbd565b610379848484610c00565b50505050565b6103d5836103d084848080601f016020809104026020016040519081016040528093929190818152602001838380828437600081840152601f19601f82011690508083019250505050505050610b23565b6109ae565b505050565b600381565b610436848461043185858080601f016020809104026020016040519081016040528093929190818152602001838380828437600081840152601f19601f82011690508083019250505050505050610b23565b61035e565b50505050565b60608383838080601f016020809104026020016040519081016040528093929190818152602001838380828437600081840152601f19601f8201169050808301925050505050505060006104d77f051d137ae0e1fae6e3b6559fed4442b35a85a9a39789838ad5c9ea05e7da2dce846040516020016104bc9291906121c4565b60405160208183030381529060405280519060200120610d77565b905060006104e58284610d91565b90503373ffffffffffffffffffffffffffffffffffffffff168173ffffffffffffffffffffffffffffffffffffffff1614610555576040517f08c379a000000000000000000000000000000000000000000000000000000000815260040161054c9061225f565b60405180910390fd5b610563600254896000610db8565b9450505050509392505050565b600660009054906101000a900473ffffffffffffffffffffffffffffffffffffffff1673ffffffffffffffffffffffffffffffffffffffff163373ffffffffffffffffffffffffffffffffffffffff16146105ca57600080fd5b600061061983838080601f016020809104026020016040519081016040528093929190818152602001838380828437600081840152601f19601f82011690508083019250505050505050610b23565b905061068660046000600660009054906101000a900473ffffffffffffffffffffffffffffffffffffffff1673ffffffffffffffffffffffffffffffffffffffff1673ffffffffffffffffffffffffffffffffffffffff1681526020019081526020016000205482610df5565b60046000600660009054906101000a900473ffffffffffffffffffffffffffffffffffffffff1673ffffffffffffffffffffffffffffffffffffffff1673ffffffffffffffffffffffffffffffffffffffff168152602001908152602001600020819055506106f760025482610df5565b600281905550505050565b60006060806000806000606061074260007f0000000000000000000000000000000000000000000000000000000000000000610e0990919063ffffffff16565b61077660017f0000000000000000000000000000000000000000000000000000000000000000610e0990919063ffffffff16565b46306000801b600067ffffffffffffffff8111156107975761079661227f565b5b6040519080825280602002602001820160405280156107c55781602001602082028036833780820191505090505b507f0f00000000000000000000000000000000000000000000000000000000000000959493929190965096509650965096509650965090919293949596565b60608383838080601f016020809104026020016040519081016040528093929190818152602001838380828437600081840152601f19601f82011690508083019250505050505050600061089f7f051d137ae0e1fae6e3b6559fed4442b35a85a9a39789838ad5c9ea05e7da2dce846040516020016108849291906121c4565b60405160208183030381529060405280519060200120610d77565b905060006108ad8284610d91565b90503373ffffffffffffffffffffffffffffffffffffffff168173ffffffffffffffffffffffffffffffffffffffff161461091d576040517f08c379a00000000000000000000000000000000000000000000000000000000081526004016109149061225f565b60405180910390fd5b610968600460003373ffffffffffffffffffffffffffffffffffffffff1673ffffffffffffffffffffffffffffffffffffffff16815260200190815260200160002054896000610db8565b9450505050509392505050565b6040518060400160405280600381526020017f574550000000000000000000000000000000000000000000000000000000000081525081565b6109b9338383610c00565b5050565b60608383838080601f016020809104026020016040519081016040528093929190818152602001838380828437600081840152601f19601f820116905080830192505050505050506000610a587f051d137ae0e1fae6e3b6559fed4442b35a85a9a39789838ad5c9ea05e7da2dce84604051602001610a3d9291906121c4565b60405160208183030381529060405280519060200120610d77565b90506000610a668284610d91565b90503373ffffffffffffffffffffffffffffffffffffffff168173ffffffffffffffffffffffffffffffffffffffff1614610ad6576040517f08c379a0000000000000000000000000000000000000000000000000000000008152600401610acd9061225f565b60405180910390fd5b6000339050610aee610ae8828c610eb9565b8a610fdc565b95505050505050949350505050565b600660009054906101000a900473ffffffffffffffffffffffffffffffffffffffff1681565b6000610b30826002610ff0565b9050919050565b80600560008573ffffffffffffffffffffffffffffffffffffffff1673ffffffffffffffffffffffffffffffffffffffff16815260200190815260200160002060008473ffffffffffffffffffffffffffffffffffffffff1673ffffffffffffffffffffffffffffffffffffffff16815260200190815260200160002081905550505050565b6000610bc98484610eb9565b9050610bdd610bd8838361109e565b6110f2565b610be657600080fd5b610bfa8484610bf58486611107565b610b37565b50505050565b610c51610c4c82600460008773ffffffffffffffffffffffffffffffffffffffff1673ffffffffffffffffffffffffffffffffffffffff1681526020019081526020016000205461109e565b6110f2565b610c5a57600080fd5b610ca3600460008473ffffffffffffffffffffffffffffffffffffffff1673ffffffffffffffffffffffffffffffffffffffff1681526020019081526020016000205482610df5565b600460008473ffffffffffffffffffffffffffffffffffffffff1673ffffffffffffffffffffffffffffffffffffffff16815260200190815260200160002081905550610d2f600460008573ffffffffffffffffffffffffffffffffffffffff1673ffffffffffffffffffffffffffffffffffffffff1681526020019081526020016000205482611107565b600460008573ffffffffffffffffffffffffffffffffffffffff1673ffffffffffffffffffffffffffffffffffffffff16815260200190815260200160002081905550505050565b6000610d8a610d8461111b565b836111d2565b9050919050565b6000806000610da08585611213565b91509150610dad81611264565b819250505092915050565b606060008414610dd357610dcc84846113ca565b9050610dee565b610deb610de58363ffffffff16611459565b846113ca565b90505b9392505050565b6000610e01838361146d565b905092915050565b606060ff60001b8314610e2657610e1f836114b7565b9050610eb3565b818054610e32906122dd565b80601f0160208091040260200160405190810160405280929190818152602001828054610e5e906122dd565b8015610eab5780601f10610e8057610100808354040283529160200191610eab565b820191906000526020600020905b815481529060010190602001808311610e8e57829003601f168201915b505050505090505b92915050565b6000610f40600560008573ffffffffffffffffffffffffffffffffffffffff1673ffffffffffffffffffffffffffffffffffffffff16815260200190815260200160002060008473ffffffffffffffffffffffffffffffffffffffff1673ffffffffffffffffffffffffffffffffffffffff1681526020019081526020016000205461152b565b15610fc957600560008473ffffffffffffffffffffffffffffffffffffffff1673ffffffffffffffffffffffffffffffffffffffff16815260200190815260200160002060008373ffffffffffffffffffffffffffffffffffffffff1673ffffffffffffffffffffffffffffffffffffffff168152602001908152602001600020549050610fd6565b610fd36000611459565b90505b92915050565b6060610fe883836113ca565b905092915050565b600080838360f81b60405160200161100992919061236b565b6040516020818303038152906040529050605d73ffffffffffffffffffffffffffffffffffffffff16634b252ec8826040518263ffffffff1660e01b81526004016110549190611edc565b602060405180830381865afa158015611071573d6000803e3d6000fd5b505050506040513d601f19601f8201168201806040525081019061109591906123bf565b91505092915050565b60006110a98361152b565b6110ba576110b76000611459565b92505b6110c38261152b565b6110d4576110d16000611459565b91505b6110ea6110e384846000611538565b60006115de565b905092915050565b6000806110fe83611668565b14159050919050565b600061111383836116ec565b905092915050565b60007f000000000000000000000000000000000000000000000000000000000000000073ffffffffffffffffffffffffffffffffffffffff163073ffffffffffffffffffffffffffffffffffffffff1614801561119757507f000000000000000000000000000000000000000000000000000000000000000046145b156111c4577f000000000000000000000000000000000000000000000000000000000000000090506111cf565b6111cc611736565b90505b90565b60006040517f190100000000000000000000000000000000000000000000000000000000000081528360028201528260228201526042812091505092915050565b60008060418351036112545760008060006020860151925060408601519150606086015160001a9050611248878285856117cc565b9450945050505061125d565b60006002915091505b9250929050565b60006004811115611278576112776123ec565b5b81600481111561128b5761128a6123ec565b5b03156113c757600160048111156112a5576112a46123ec565b5b8160048111156112b8576112b76123ec565b5b036112f8576040517f08c379a00000000000000000000000000000000000000000000000000000000081526004016112ef90612467565b60405180910390fd5b6002600481111561130c5761130b6123ec565b5b81600481111561131f5761131e6123ec565b5b0361135f576040517f08c379a0000000000000000000000000000000000000000000000000000000008152600401611356906124d3565b60405180910390fd5b60036004811115611373576113726123ec565b5b816004811115611386576113856123ec565b5b036113c6576040517f08c379a00000000000000000000000000000000000000000000000000000000081526004016113bd90612565565b60405180910390fd5b5b50565b6060605d73ffffffffffffffffffffffffffffffffffffffff1663d6ad57cd848460001c6040518363ffffffff1660e01b815260040161140b929190612585565b600060405180830381865afa158015611428573d6000803e3d6000fd5b505050506040513d6000823e3d601f19601f8201168201806040525081019061145191906126a0565b905092915050565b60006114668260026118ae565b9050919050565b60006114788361152b565b611489576114866000611459565b92505b6114928261152b565b6114a3576114a06000611459565b91505b6114af83836000611938565b905092915050565b606060006114c4836119de565b90506000602067ffffffffffffffff8111156114e3576114e261227f565b5b6040519080825280601f01601f1916602001820160405280156115155781602001600182028036833780820191505090505b5090508181528360208201528092505050919050565b6000808214159050919050565b600080821561154d57600160f81b9050611555565b600060f81b90505b605d73ffffffffffffffffffffffffffffffffffffffff1663694daf728686846040518463ffffffff1660e01b8152600401611593939291906126e9565b602060405180830381865afa1580156115b0573d6000803e3d6000fd5b505050506040513d601f19601f820116820180604052508101906115d491906123bf565b9150509392505050565b6000605d73ffffffffffffffffffffffffffffffffffffffff16634be68d20848460f81b6040518363ffffffff1660e01b815260040161161f929190612720565b602060405180830381865afa15801561163c573d6000803e3d6000fd5b505050506040513d601f19601f8201168201806040525081019061166091906123bf565b905092915050565b6000605d73ffffffffffffffffffffffffffffffffffffffff16635a4ee440836040518263ffffffff1660e01b81526004016116a49190612749565b602060405180830381865afa1580156116c1573d6000803e3d6000fd5b505050506040513d601f19601f820116820180604052508101906116e591906123bf565b9050919050565b60006116f78361152b565b611708576117056000611459565b92505b6117118261152b565b6117225761171f6000611459565b91505b61172e83836000611a2e565b905092915050565b60007f8b73c3c69bb8fe3d512ecc4cf759cc79239f7b179b0ffacaa9a75d522b39400f7f00000000000000000000000000000000000000000000000000000000000000007f000000000000000000000000000000000000000000000000000000000000000046306040516020016117b1959493929190612764565b60405160208183030381529060405280519060200120905090565b6000807f7fffffffffffffffffffffffffffffff5d576e7357a4501ddfe92f46681b20a08360001c11156118075760006003915091506118a5565b60006001878787876040516000815260200160405260405161182c94939291906127b7565b6020604051602081039080840390855afa15801561184e573d6000803e3d6000fd5b505050602060405103519050600073ffffffffffffffffffffffffffffffffffffffff168173ffffffffffffffffffffffffffffffffffffffff160361189c576000600192509250506118a5565b80600092509250505b94509492505050565b6000605d73ffffffffffffffffffffffffffffffffffffffff1663e71746b8848460f81b6040518363ffffffff1660e01b81526004016118ef929190612720565b602060405180830381865afa15801561190c573d6000803e3d6000fd5b505050506040513d601f19601f8201168201806040525081019061193091906123bf565b905092915050565b600080821561194d57600160f81b9050611955565b600060f81b90505b605d73ffffffffffffffffffffffffffffffffffffffff1663f953e4278686846040518463ffffffff1660e01b8152600401611993939291906126e9565b602060405180830381865afa1580156119b0573d6000803e3d6000fd5b505050506040513d601f19601f820116820180604052508101906119d491906123bf565b9150509392505050565b60008060ff8360001c169050601f811115611a25576040517fb3512b0c00000000000000000000000000000000000000000000000000000000815260040160405180910390fd5b80915050919050565b6000808215611a4357600160f81b9050611a4b565b600060f81b90505b605d73ffffffffffffffffffffffffffffffffffffffff16638c14cc218686846040518463ffffffff1660e01b8152600401611a89939291906126e9565b602060405180830381865afa158015611aa6573d6000803e3d6000fd5b505050506040513d601f19601f82011682018060405250810190611aca91906123bf565b9150509392505050565b6000604051905090565b600080fd5b600080fd5b600073ffffffffffffffffffffffffffffffffffffffff82169050919050565b6000611b1382611ae8565b9050919050565b611b2381611b08565b8114611b2e57600080fd5b50565b600081359050611b4081611b1a565b92915050565b600080fd5b600080fd5b600080fd5b60008083601f840112611b6b57611b6a611b46565b5b8235905067ffffffffffffffff811115611b8857611b87611b4b565b5b602083019150836001820283011115611ba457611ba3611b50565b5b9250929050565b600080600060408486031215611bc457611bc3611ade565b5b6000611bd286828701611b31565b935050602084013567ffffffffffffffff811115611bf357611bf2611ae3565b5b611bff86828701611b55565b92509250509250925092565b600081519050919050565b600082825260208201905092915050565b60005b83811015611c45578082015181840152602081019050611c2a565b60008484015250505050565b6000601f19601f8301169050919050565b6000611c6d82611c0b565b611c778185611c16565b9350611c87818560208601611c27565b611c9081611c51565b840191505092915050565b60006020820190508181036000830152611cb58184611c62565b905092915050565b6000819050919050565b611cd081611cbd565b8114611cdb57600080fd5b50565b600081359050611ced81611cc7565b92915050565b600080600060608486031215611d0c57611d0b611ade565b5b6000611d1a86828701611b31565b9350506020611d2b86828701611b31565b9250506040611d3c86828701611cde565b9150509250925092565b600060ff82169050919050565b611d5c81611d46565b82525050565b6000602082019050611d776000830184611d53565b92915050565b60008060008060608587031215611d9757611d96611ade565b5b6000611da587828801611b31565b9450506020611db687828801611b31565b935050604085013567ffffffffffffffff811115611dd757611dd6611ae3565b5b611de387828801611b55565b925092505092959194509250565b6000819050919050565b611e0481611df1565b8114611e0f57600080fd5b50565b600081359050611e2181611dfb565b92915050565b600080600060408486031215611e4057611e3f611ade565b5b6000611e4e86828701611e12565b935050602084013567ffffffffffffffff811115611e6f57611e6e611ae3565b5b611e7b86828701611b55565b92509250509250925092565b600081519050919050565b600082825260208201905092915050565b6000611eae82611e87565b611eb88185611e92565b9350611ec8818560208601611c27565b611ed181611c51565b840191505092915050565b60006020820190508181036000830152611ef68184611ea3565b905092915050565b60008060208385031215611f1557611f14611ade565b5b600083013567ffffffffffffffff811115611f3357611f32611ae3565b5b611f3f85828601611b55565b92509250509250929050565b60007fff0000000000000000000000000000000000000000000000000000000000000082169050919050565b611f8081611f4b565b82525050565b611f8f81611cbd565b82525050565b611f9e81611b08565b82525050565b611fad81611df1565b82525050565b600081519050919050565b600082825260208201905092915050565b6000819050602082019050919050565b611fe881611cbd565b82525050565b6000611ffa8383611fdf565b60208301905092915050565b6000602082019050919050565b600061201e82611fb3565b6120288185611fbe565b935061203383611fcf565b8060005b8381101561206457815161204b8882611fee565b975061205683612006565b925050600181019050612037565b5085935050505092915050565b600060e082019050612086600083018a611f77565b81810360208301526120988189611c62565b905081810360408301526120ac8188611c62565b90506120bb6060830187611f86565b6120c86080830186611f95565b6120d560a0830185611fa4565b81810360c08301526120e78184612013565b905098975050505050505050565b6000806040838503121561210c5761210b611ade565b5b600061211a85828601611b31565b925050602061212b85828601611cde565b9150509250929050565b6000806000806060858703121561214f5761214e611ade565b5b600061215d87828801611b31565b945050602061216e87828801611e12565b935050604085013567ffffffffffffffff81111561218f5761218e611ae3565b5b61219b87828801611b55565b925092505092959194509250565b60006020820190506121be6000830184611f95565b92915050565b60006040820190506121d96000830185611fa4565b6121e66020830184611fa4565b9392505050565b7f454950373132207369676e657220616e64207472616e73616374696f6e20736960008201527f676e657220646f206e6f74206d61746368000000000000000000000000000000602082015250565b6000612249603183611c16565b9150612254826121ed565b604082019050919050565b600060208201905081810360008301526122788161223c565b9050919050565b7f4e487b7100000000000000000000000000000000000000000000000000000000600052604160045260246000fd5b7f4e487b7100000000000000000000000000000000000000000000000000000000600052602260045260246000fd5b600060028204905060018216806122f557607f821691505b602082108103612308576123076122ae565b5b50919050565b600081905092915050565b600061232482611e87565b61232e818561230e565b935061233e818560208601611c27565b80840191505092915050565b6000819050919050565b61236561236082611f4b565b61234a565b82525050565b60006123778285612319565b91506123838284612354565b6001820191508190509392505050565b61239c81611cbd565b81146123a757600080fd5b50565b6000815190506123b981612393565b92915050565b6000602082840312156123d5576123d4611ade565b5b60006123e3848285016123aa565b91505092915050565b7f4e487b7100000000000000000000000000000000000000000000000000000000600052602160045260246000fd5b7f45434453413a20696e76616c6964207369676e61747572650000000000000000600082015250565b6000612451601883611c16565b915061245c8261241b565b602082019050919050565b6000602082019050818103600083015261248081612444565b9050919050565b7f45434453413a20696e76616c6964207369676e6174757265206c656e67746800600082015250565b60006124bd601f83611c16565b91506124c882612487565b602082019050919050565b600060208201905081810360008301526124ec816124b0565b9050919050565b7f45434453413a20696e76616c6964207369676e6174757265202773272076616c60008201527f7565000000000000000000000000000000000000000000000000000000000000602082015250565b600061254f602283611c16565b915061255a826124f3565b604082019050919050565b6000602082019050818103600083015261257e81612542565b9050919050565b600060408201905061259a6000830185611f86565b6125a76020830184611f86565b9392505050565b600080fd5b6125bc82611c51565b810181811067ffffffffffffffff821117156125db576125da61227f565b5b80604052505050565b60006125ee611ad4565b90506125fa82826125b3565b919050565b600067ffffffffffffffff82111561261a5761261961227f565b5b61262382611c51565b9050602081019050919050565b600061264361263e846125ff565b6125e4565b90508281526020810184848401111561265f5761265e6125ae565b5b61266a848285611c27565b509392505050565b600082601f83011261268757612686611b46565b5b8151612697848260208601612630565b91505092915050565b6000602082840312156126b6576126b5611ade565b5b600082015167ffffffffffffffff8111156126d4576126d3611ae3565b5b6126e084828501612672565b91505092915050565b60006060820190506126fe6000830186611f86565b61270b6020830185611f86565b6127186040830184611f77565b949350505050565b60006040820190506127356000830185611f86565b6127426020830184611f77565b9392505050565b600060208201905061275e6000830184611f86565b92915050565b600060a0820190506127796000830188611fa4565b6127866020830187611fa4565b6127936040830186611fa4565b6127a06060830185611f86565b6127ad6080830184611f95565b9695505050505050565b60006080820190506127cc6000830187611fa4565b6127d96020830186611d53565b6127e66040830185611fa4565b6127f36060830184611fa4565b9594505050505056fea26469706673582212207bc85c808fe780d65c561c170fabb9e6cb6882761b8e9e7e524e0562e5bb2cfd64736f6c63430008130033",
  "devdoc": {
    "events": {
      "EIP712DomainChanged()": {
        "details": "MAY be emitted to signal that the domain could have changed."
      }
    },
    "kind": "dev",
    "methods": {
      "eip712Domain()": {
        "details": "See {EIP-5267}. _Available since v4.9._"
      }
    },
    "version": 1
  },
  "userdoc": {
    "kind": "user",
    "methods": {},
    "version": 1
  },
  "storageLayout": {
    "storage": [
      {
        "astId": 978,
        "contract": "contracts/wrappingEncryptedBTCERC20.sol:EncryptedBTCERC20",
        "label": "_nameFallback",
        "offset": 0,
        "slot": "0",
        "type": "t_string_storage"
      },
      {
        "astId": 980,
        "contract": "contracts/wrappingEncryptedBTCERC20.sol:EncryptedBTCERC20",
        "label": "_versionFallback",
        "offset": 0,
        "slot": "1",
        "type": "t_string_storage"
      },
      {
        "astId": 2129,
        "contract": "contracts/wrappingEncryptedBTCERC20.sol:EncryptedBTCERC20",
        "label": "totalSupply",
        "offset": 0,
        "slot": "2",
        "type": "t_userDefinedValueType(euint32)3851"
      },
      {
        "astId": 2140,
        "contract": "contracts/wrappingEncryptedBTCERC20.sol:EncryptedBTCERC20",
        "label": "DOMAIN_SEPARATOR",
        "offset": 0,
        "slot": "3",
        "type": "t_bytes32"
      },
      {
        "astId": 2145,
        "contract": "contracts/wrappingEncryptedBTCERC20.sol:EncryptedBTCERC20",
        "label": "balances",
        "offset": 0,
        "slot": "4",
        "type": "t_mapping(t_address,t_userDefinedValueType(euint32)3851)"
      },
      {
        "astId": 2152,
        "contract": "contracts/wrappingEncryptedBTCERC20.sol:EncryptedBTCERC20",
        "label": "allowances",
        "offset": 0,
        "slot": "5",
        "type": "t_mapping(t_address,t_mapping(t_address,t_userDefinedValueType(euint32)3851))"
      },
      {
        "astId": 2154,
        "contract": "contracts/wrappingEncryptedBTCERC20.sol:EncryptedBTCERC20",
        "label": "contractOwner",
        "offset": 0,
        "slot": "6",
        "type": "t_address"
      }
    ],
    "types": {
      "t_address": {
        "encoding": "inplace",
        "label": "address",
        "numberOfBytes": "20"
      },
      "t_bytes32": {
        "encoding": "inplace",
        "label": "bytes32",
        "numberOfBytes": "32"
      },
      "t_mapping(t_address,t_mapping(t_address,t_userDefinedValueType(euint32)3851))": {
        "encoding": "mapping",
        "key": "t_address",
        "label": "mapping(address => mapping(address => euint32))",
        "numberOfBytes": "32",
        "value": "t_mapping(t_address,t_userDefinedValueType(euint32)3851)"
      },
      "t_mapping(t_address,t_userDefinedValueType(euint32)3851)": {
        "encoding": "mapping",
        "key": "t_address",
        "label": "mapping(address => euint32)",
        "numberOfBytes": "32",
        "value": "t_userDefinedValueType(euint32)3851"
      },
      "t_string_storage": {
        "encoding": "bytes",
        "label": "string",
        "numberOfBytes": "32"
      },
      "t_userDefinedValueType(euint32)3851": {
        "encoding": "inplace",
        "label": "euint32",
        "numberOfBytes": "32"
      }
    }
  }
}