{
  "address": "0x62B9fC46928B2c72374436D4bECF4A744E9481AA",
  "abi": [
    {
      "inputs": [],
      "stateMutability": "nonpayable",
      "type": "constructor"
    },
    {
      "inputs": [],
      "name": "InvalidShortString",
      "type": "error"
    },
    {
      "inputs": [
        {
          "internalType": "string",
          "name": "str",
          "type": "string"
        }
      ],
      "name": "StringTooLong",
      "type": "error"
    },
    {
      "anonymous": false,
      "inputs": [],
      "name": "EIP712DomainChanged",
      "type": "event"
    },
    {
      "inputs": [
        {
          "internalType": "bytes",
          "name": "_amount0",
          "type": "bytes"
        },
        {
          "internalType": "bytes",
          "name": "_amount1",
          "type": "bytes"
        }
      ],
      "name": "addLiquidity",
      "outputs": [
        {
          "internalType": "uint256",
          "name": "shares",
          "type": "uint256"
        }
      ],
      "stateMutability": "nonpayable",
      "type": "function"
    },
    {
      "inputs": [],
      "name": "eip712Domain",
      "outputs": [
        {
          "internalType": "bytes1",
          "name": "fields",
          "type": "bytes1"
        },
        {
          "internalType": "string",
          "name": "name",
          "type": "string"
        },
        {
          "internalType": "string",
          "name": "version",
          "type": "string"
        },
        {
          "internalType": "uint256",
          "name": "chainId",
          "type": "uint256"
        },
        {
          "internalType": "address",
          "name": "verifyingContract",
          "type": "address"
        },
        {
          "internalType": "bytes32",
          "name": "salt",
          "type": "bytes32"
        },
        {
          "internalType": "uint256[]",
          "name": "extensions",
          "type": "uint256[]"
        }
      ],
      "stateMutability": "view",
      "type": "function"
    },
    {
      "inputs": [],
      "name": "factory",
      "outputs": [
        {
          "internalType": "address",
          "name": "",
          "type": "address"
        }
      ],
      "stateMutability": "view",
      "type": "function"
    },
    {
      "inputs": [
        {
          "internalType": "address",
          "name": "_token0",
          "type": "address"
        },
        {
          "internalType": "address",
          "name": "_token1",
          "type": "address"
        }
      ],
      "name": "initialize",
      "outputs": [],
      "stateMutability": "nonpayable",
      "type": "function"
    },
    {
      "inputs": [
        {
          "internalType": "bytes",
          "name": "_shares",
          "type": "bytes"
        }
      ],
      "name": "removeLiquidity",
      "outputs": [
        {
          "internalType": "uint256",
          "name": "amount0",
          "type": "uint256"
        },
        {
          "internalType": "uint256",
          "name": "amount1",
          "type": "uint256"
        }
      ],
      "stateMutability": "nonpayable",
      "type": "function"
    },
    {
      "inputs": [],
      "name": "reserve0",
      "outputs": [
        {
          "internalType": "uint256",
          "name": "",
          "type": "uint256"
        }
      ],
      "stateMutability": "view",
      "type": "function"
    },
    {
      "inputs": [],
      "name": "reserve1",
      "outputs": [
        {
          "internalType": "uint256",
          "name": "",
          "type": "uint256"
        }
      ],
      "stateMutability": "view",
      "type": "function"
    },
    {
      "inputs": [
        {
          "internalType": "address",
          "name": "_tokenIn",
          "type": "address"
        },
        {
          "internalType": "bytes",
          "name": "_amountIn",
          "type": "bytes"
        }
      ],
      "name": "swap",
      "outputs": [
        {
          "internalType": "uint256",
          "name": "amountOut",
          "type": "uint256"
        }
      ],
      "stateMutability": "nonpayable",
      "type": "function"
    },
    {
      "inputs": [],
      "name": "token0",
      "outputs": [
        {
          "internalType": "contract IERC20",
          "name": "",
          "type": "address"
        }
      ],
      "stateMutability": "view",
      "type": "function"
    },
    {
      "inputs": [],
      "name": "token1",
      "outputs": [
        {
          "internalType": "contract IERC20",
          "name": "",
          "type": "address"
        }
      ],
      "stateMutability": "view",
      "type": "function"
    },
    {
      "inputs": [],
      "name": "totalSupply",
      "outputs": [
        {
          "internalType": "uint256",
          "name": "",
          "type": "uint256"
        }
      ],
      "stateMutability": "view",
      "type": "function"
    }
  ],
  "transactionHash": "0xd701efdfea91e3026cdb515ef1becfc6200d4ecfaf0188c78e7172b4c8b45d82",
  "args": [],
  "numDeployments": 7,
  "solcInputHash": "09e0b6d2f3dfa1cdb490007c70c615cf",
  "bytecode": "0x6101806040523480156200001257600080fd5b506040518060400160405280600a81526020017f417574685f4552433230000000000000000000000000000000000000000000008152506040518060400160405280600181526020017f31000000000000000000000000000000000000000000000000000000000000008152508181620000976000836200016e60201b90919060201c565b6101208181525050620000b56001826200016e60201b90919060201c565b6101408181525050818051906020012060e08181525050808051906020012061010081815250504660a08181525050620000f4620001c660201b60201c565b608081815250503073ffffffffffffffffffffffffffffffffffffffff1660c08173ffffffffffffffffffffffffffffffffffffffff1681525050505050503373ffffffffffffffffffffffffffffffffffffffff166101608173ffffffffffffffffffffffffffffffffffffffff16815250506200081e565b600060208351101562000194576200018c836200022360201b60201c565b9050620001c0565b82620001a6836200029060201b60201c565b6000019081620001b7919062000514565b5060ff60001b90505b92915050565b60007f8b73c3c69bb8fe3d512ecc4cf759cc79239f7b179b0ffacaa9a75d522b39400f60e051610100514630604051602001620002089594939291906200066c565b60405160208183030381529060405280519060200120905090565b600080829050601f815111156200027357826040517f305a27a90000000000000000000000000000000000000000000000000000000081526004016200026a919062000758565b60405180910390fd5b8051816200028190620007ae565b60001c1760001b915050919050565b6000819050919050565b600081519050919050565b7f4e487b7100000000000000000000000000000000000000000000000000000000600052604160045260246000fd5b7f4e487b7100000000000000000000000000000000000000000000000000000000600052602260045260246000fd5b600060028204905060018216806200031c57607f821691505b602082108103620003325762000331620002d4565b5b50919050565b60008190508160005260206000209050919050565b60006020601f8301049050919050565b600082821b905092915050565b6000600883026200039c7fffffffffffffffffffffffffffffffffffffffffffffffffffffffffffffffff826200035d565b620003a886836200035d565b95508019841693508086168417925050509392505050565b6000819050919050565b6000819050919050565b6000620003f5620003ef620003e984620003c0565b620003ca565b620003c0565b9050919050565b6000819050919050565b6200041183620003d4565b620004296200042082620003fc565b8484546200036a565b825550505050565b600090565b6200044062000431565b6200044d81848462000406565b505050565b5b8181101562000475576200046960008262000436565b60018101905062000453565b5050565b601f821115620004c4576200048e8162000338565b62000499846200034d565b81016020851015620004a9578190505b620004c1620004b8856200034d565b83018262000452565b50505b505050565b600082821c905092915050565b6000620004e960001984600802620004c9565b1980831691505092915050565b6000620005048383620004d6565b9150826002028217905092915050565b6200051f826200029a565b67ffffffffffffffff8111156200053b576200053a620002a5565b5b62000547825462000303565b6200055482828562000479565b600060209050601f8311600181146200058c576000841562000577578287015190505b620005838582620004f6565b865550620005f3565b601f1984166200059c8662000338565b60005b82811015620005c6578489015182556001820191506020850194506020810190506200059f565b86831015620005e65784890151620005e2601f891682620004d6565b8355505b6001600288020188555050505b505050505050565b6000819050919050565b6200061081620005fb565b82525050565b6200062181620003c0565b82525050565b600073ffffffffffffffffffffffffffffffffffffffff82169050919050565b6000620006548262000627565b9050919050565b620006668162000647565b82525050565b600060a08201905062000683600083018862000605565b62000692602083018762000605565b620006a1604083018662000605565b620006b0606083018562000616565b620006bf60808301846200065b565b9695505050505050565b600082825260208201905092915050565b60005b83811015620006fa578082015181840152602081019050620006dd565b60008484015250505050565b6000601f19601f8301169050919050565b600062000724826200029a565b620007308185620006c9565b935062000742818560208601620006da565b6200074d8162000706565b840191505092915050565b6000602082019050818103600083015262000774818462000717565b905092915050565b600081519050919050565b6000819050602082019050919050565b6000620007a58251620005fb565b80915050919050565b6000620007bb826200077c565b82620007c78462000787565b9050620007d48162000797565b925060208210156200081757620008127fffffffffffffffffffffffffffffffffffffffffffffffffffffffffffffffff836020036008026200035d565b831692505b5050919050565b60805160a05160c05160e0516101005161012051610140516101605161236b6200087c60003960008181610a990152610cb501526000610bf801526000610bc40152600050506000505060005050600050506000505061236b6000f3fe608060405234801561001057600080fd5b50600436106100a95760003560e01c8063485cc95511610071578063485cc955146101695780635a76f25e1461018557806384b0196e146101a3578063c45a0155146101c7578063d21220a7146101e5578063e354733514610203576100a9565b8063028318cf146100ae5780630dfe1681146100df57806316eb1913146100fd57806318160ddd1461012d578063443cb4bc1461014b575b600080fd5b6100c860048036038101906100c391906116f2565b610233565b6040516100d6929190611758565b60405180910390f35b6100e76105dc565b6040516100f49190611800565b60405180910390f35b6101176004803603810190610112919061181b565b610602565b604051610124919061189c565b60405180910390f35b610135610a8b565b604051610142919061189c565b60405180910390f35b610153610a91565b604051610160919061189c565b60405180910390f35b610183600480360381019061017e91906118f5565b610a97565b005b61018d610bab565b60405161019a919061189c565b60405180910390f35b6101ab610bb1565b6040516101be9796959493929190611ae6565b60405180910390f35b6101cf610cb3565b6040516101dc9190611b6a565b60405180910390f35b6101ed610cd7565b6040516101fa9190611800565b60405180910390f35b61021d60048036038101906102189190611b85565b610cfd565b60405161022a919061189c565b60405180910390f35b600080600061028d61028886868080601f016020809104026020016040519081016040528093929190818152602001838380828437600081840152601f19601f8201169050808301925050505050505061122b565b61123f565b90506000600260009054906101000a900473ffffffffffffffffffffffffffffffffffffffff1673ffffffffffffffffffffffffffffffffffffffff166370a08231306040518263ffffffff1660e01b81526004016102ec9190611b6a565b602060405180830381865afa158015610309573d6000803e3d6000fd5b505050506040513d601f19601f8201168201806040525081019061032d9190611c11565b90506000600360009054906101000a900473ffffffffffffffffffffffffffffffffffffffff1673ffffffffffffffffffffffffffffffffffffffff166370a08231306040518263ffffffff1660e01b815260040161038c9190611b6a565b602060405180830381865afa1580156103a9573d6000803e3d6000fd5b505050506040513d601f19601f820116820180604052508101906103cd9190611c11565b9050600654828463ffffffff166103e49190611c6d565b6103ee9190611cde565b9450600654818463ffffffff166104059190611c6d565b61040f9190611cde565b93506000851180156104215750600084115b610460576040517f08c379a000000000000000000000000000000000000000000000000000000000815260040161045790611d5b565b60405180910390fd5b610470338463ffffffff16611251565b610490858361047f9190611d7b565b858361048b9190611d7b565b6112c4565b600260009054906101000a900473ffffffffffffffffffffffffffffffffffffffff1673ffffffffffffffffffffffffffffffffffffffff1663a9059cbb33876040518363ffffffff1660e01b81526004016104ed929190611daf565b6020604051808303816000875af115801561050c573d6000803e3d6000fd5b505050506040513d601f19601f820116820180604052508101906105309190611e10565b50600360009054906101000a900473ffffffffffffffffffffffffffffffffffffffff1673ffffffffffffffffffffffffffffffffffffffff1663a9059cbb33866040518363ffffffff1660e01b815260040161058e929190611daf565b6020604051808303816000875af11580156105ad573d6000803e3d6000fd5b505050506040513d601f19601f820116820180604052508101906105d19190611e10565b505050509250929050565b600260009054906101000a900473ffffffffffffffffffffffffffffffffffffffff1681565b60008061065a61065587878080601f016020809104026020016040519081016040528093929190818152602001838380828437600081840152601f19601f8201169050808301925050505050505061122b565b61123f565b905060006106b36106ae86868080601f016020809104026020016040519081016040528093929190818152602001838380828437600081840152601f19601f8201169050808301925050505050505061122b565b61123f565b9050600260009054906101000a900473ffffffffffffffffffffffffffffffffffffffff1673ffffffffffffffffffffffffffffffffffffffff166323b872dd3330856040518463ffffffff1660e01b815260040161071493929190611e7e565b6020604051808303816000875af1158015610733573d6000803e3d6000fd5b505050506040513d601f19601f820116820180604052508101906107579190611e10565b50600360009054906101000a900473ffffffffffffffffffffffffffffffffffffffff1673ffffffffffffffffffffffffffffffffffffffff166323b872dd3330846040518463ffffffff1660e01b81526004016107b793929190611e7e565b6020604051808303816000875af11580156107d6573d6000803e3d6000fd5b505050506040513d601f19601f820116820180604052508101906107fa9190611e10565b506000600454118061080e57506000600554115b1561087c578163ffffffff166005546108279190611c6d565b8163ffffffff1660045461083b9190611c6d565b1461087b576040517f08c379a000000000000000000000000000000000000000000000000000000000815260040161087290611f01565b60405180910390fd5b5b6000600654036108a7576108a081836108959190611f21565b63ffffffff166112d6565b92506108f4565b6108f16004546006548463ffffffff166108c19190611c6d565b6108cb9190611cde565b6005546006548463ffffffff166108e29190611c6d565b6108ec9190611cde565b611350565b92505b60008311610937576040517f08c379a000000000000000000000000000000000000000000000000000000000815260040161092e90611faa565b60405180910390fd5b610941338461136a565b610a81600260009054906101000a900473ffffffffffffffffffffffffffffffffffffffff1673ffffffffffffffffffffffffffffffffffffffff166370a08231306040518263ffffffff1660e01b815260040161099f9190611b6a565b602060405180830381865afa1580156109bc573d6000803e3d6000fd5b505050506040513d601f19601f820116820180604052508101906109e09190611c11565b600360009054906101000a900473ffffffffffffffffffffffffffffffffffffffff1673ffffffffffffffffffffffffffffffffffffffff166370a08231306040518263ffffffff1660e01b8152600401610a3b9190611b6a565b602060405180830381865afa158015610a58573d6000803e3d6000fd5b505050506040513d601f19601f82011682018060405250810190610a7c9190611c11565b6112c4565b5050949350505050565b60065481565b60045481565b7f000000000000000000000000000000000000000000000000000000000000000073ffffffffffffffffffffffffffffffffffffffff163373ffffffffffffffffffffffffffffffffffffffff1614610b25576040517f08c379a0000000000000000000000000000000000000000000000000000000008152600401610b1c90612016565b60405180910390fd5b81600260006101000a81548173ffffffffffffffffffffffffffffffffffffffff021916908373ffffffffffffffffffffffffffffffffffffffff16021790555080600360006101000a81548173ffffffffffffffffffffffffffffffffffffffff021916908373ffffffffffffffffffffffffffffffffffffffff1602179055505050565b60055481565b600060608060008060006060610bf160007f00000000000000000000000000000000000000000000000000000000000000006113dd90919063ffffffff16565b610c2560017f00000000000000000000000000000000000000000000000000000000000000006113dd90919063ffffffff16565b46306000801b600067ffffffffffffffff811115610c4657610c45612036565b5b604051908082528060200260200182016040528015610c745781602001602082028036833780820191505090505b507f0f00000000000000000000000000000000000000000000000000000000000000959493929190965096509650965096509650965090919293949596565b7f000000000000000000000000000000000000000000000000000000000000000081565b600360009054906101000a900473ffffffffffffffffffffffffffffffffffffffff1681565b600080610d55610d5085858080601f016020809104026020016040519081016040528093929190818152602001838380828437600081840152601f19601f8201169050808301925050505050505061122b565b61123f565b9050600260009054906101000a900473ffffffffffffffffffffffffffffffffffffffff1673ffffffffffffffffffffffffffffffffffffffff168573ffffffffffffffffffffffffffffffffffffffff161480610e005750600360009054906101000a900473ffffffffffffffffffffffffffffffffffffffff1673ffffffffffffffffffffffffffffffffffffffff168573ffffffffffffffffffffffffffffffffffffffff16145b610e3f576040517f08c379a0000000000000000000000000000000000000000000000000000000008152600401610e36906120b1565b60405180910390fd5b60008163ffffffff1611610e88576040517f08c379a0000000000000000000000000000000000000000000000000000000008152600401610e7f9061211d565b60405180910390fd5b6000600260009054906101000a900473ffffffffffffffffffffffffffffffffffffffff1673ffffffffffffffffffffffffffffffffffffffff168673ffffffffffffffffffffffffffffffffffffffff1614905060008060008084610f3957600360009054906101000a900473ffffffffffffffffffffffffffffffffffffffff16600260009054906101000a900473ffffffffffffffffffffffffffffffffffffffff16600554600454610f86565b600260009054906101000a900473ffffffffffffffffffffffffffffffffffffffff16600360009054906101000a900473ffffffffffffffffffffffffffffffffffffffff166004546005545b93509350935093508373ffffffffffffffffffffffffffffffffffffffff166323b872dd33308963ffffffff166040518463ffffffff1660e01b8152600401610fd19392919061213d565b6020604051808303816000875af1158015610ff0573d6000803e3d6000fd5b505050506040513d601f19601f820116820180604052508101906110149190611e10565b5060006103e86103e5886110289190611f21565b6110329190612174565b63ffffffff169050808361104691906121a5565b81836110529190611c6d565b61105c9190611cde565b97508373ffffffffffffffffffffffffffffffffffffffff1663a9059cbb338a6040518363ffffffff1660e01b8152600401611099929190611daf565b6020604051808303816000875af11580156110b8573d6000803e3d6000fd5b505050506040513d601f19601f820116820180604052508101906110dc9190611e10565b5061121d600260009054906101000a900473ffffffffffffffffffffffffffffffffffffffff1673ffffffffffffffffffffffffffffffffffffffff166370a08231306040518263ffffffff1660e01b815260040161113b9190611b6a565b602060405180830381865afa158015611158573d6000803e3d6000fd5b505050506040513d601f19601f8201168201806040525081019061117c9190611c11565b600360009054906101000a900473ffffffffffffffffffffffffffffffffffffffff1673ffffffffffffffffffffffffffffffffffffffff166370a08231306040518263ffffffff1660e01b81526004016111d79190611b6a565b602060405180830381865afa1580156111f4573d6000803e3d6000fd5b505050506040513d601f19601f820116820180604052508101906112189190611c11565b6112c4565b505050505050509392505050565b600061123882600261148d565b9050919050565b600061124a8261153b565b9050919050565b80600760008473ffffffffffffffffffffffffffffffffffffffff1673ffffffffffffffffffffffffffffffffffffffff16815260200190815260200160002060008282546112a09190611d7b565b9250508190555080600660008282546112b99190611d7b565b925050819055505050565b81600481905550806005819055505050565b6000600382111561133d57819050600060016002846112f59190611cde565b6112ff91906121a5565b90505b8181101561133757809150600281828561131c9190611cde565b61132691906121a5565b6113309190611cde565b9050611302565b5061134b565b6000821461134a57600190505b5b919050565b6000818311156113605781611362565b825b905092915050565b80600760008473ffffffffffffffffffffffffffffffffffffffff1673ffffffffffffffffffffffffffffffffffffffff16815260200190815260200160002060008282546113b991906121a5565b9250508190555080600660008282546113d291906121a5565b925050819055505050565b606060ff60001b83146113fa576113f3836115bf565b9050611487565b81805461140690612208565b80601f016020809104026020016040519081016040528092919081815260200182805461143290612208565b801561147f5780601f106114545761010080835404028352916020019161147f565b820191906000526020600020905b81548152906001019060200180831161146257829003601f168201915b505050505090505b92915050565b600080838360f81b6040516020016114a69291906122a1565b6040516020818303038152906040529050605d73ffffffffffffffffffffffffffffffffffffffff16634b252ec8826040518263ffffffff1660e01b81526004016114f19190612313565b602060405180830381865afa15801561150e573d6000803e3d6000fd5b505050506040513d601f19601f820116820180604052508101906115329190611c11565b91505092915050565b6000605d73ffffffffffffffffffffffffffffffffffffffff16635a4ee440836040518263ffffffff1660e01b8152600401611577919061189c565b602060405180830381865afa158015611594573d6000803e3d6000fd5b505050506040513d601f19601f820116820180604052508101906115b89190611c11565b9050919050565b606060006115cc83611633565b90506000602067ffffffffffffffff8111156115eb576115ea612036565b5b6040519080825280601f01601f19166020018201604052801561161d5781602001600182028036833780820191505090505b5090508181528360208201528092505050919050565b60008060ff8360001c169050601f81111561167a576040517fb3512b0c00000000000000000000000000000000000000000000000000000000815260040160405180910390fd5b80915050919050565b600080fd5b600080fd5b600080fd5b600080fd5b600080fd5b60008083601f8401126116b2576116b161168d565b5b8235905067ffffffffffffffff8111156116cf576116ce611692565b5b6020830191508360018202830111156116eb576116ea611697565b5b9250929050565b6000806020838503121561170957611708611683565b5b600083013567ffffffffffffffff81111561172757611726611688565b5b6117338582860161169c565b92509250509250929050565b6000819050919050565b6117528161173f565b82525050565b600060408201905061176d6000830185611749565b61177a6020830184611749565b9392505050565b600073ffffffffffffffffffffffffffffffffffffffff82169050919050565b6000819050919050565b60006117c66117c16117bc84611781565b6117a1565b611781565b9050919050565b60006117d8826117ab565b9050919050565b60006117ea826117cd565b9050919050565b6117fa816117df565b82525050565b600060208201905061181560008301846117f1565b92915050565b6000806000806040858703121561183557611834611683565b5b600085013567ffffffffffffffff81111561185357611852611688565b5b61185f8782880161169c565b9450945050602085013567ffffffffffffffff81111561188257611881611688565b5b61188e8782880161169c565b925092505092959194509250565b60006020820190506118b16000830184611749565b92915050565b60006118c282611781565b9050919050565b6118d2816118b7565b81146118dd57600080fd5b50565b6000813590506118ef816118c9565b92915050565b6000806040838503121561190c5761190b611683565b5b600061191a858286016118e0565b925050602061192b858286016118e0565b9150509250929050565b60007fff0000000000000000000000000000000000000000000000000000000000000082169050919050565b61196a81611935565b82525050565b600081519050919050565b600082825260208201905092915050565b60005b838110156119aa57808201518184015260208101905061198f565b60008484015250505050565b6000601f19601f8301169050919050565b60006119d282611970565b6119dc818561197b565b93506119ec81856020860161198c565b6119f5816119b6565b840191505092915050565b611a09816118b7565b82525050565b6000819050919050565b611a2281611a0f565b82525050565b600081519050919050565b600082825260208201905092915050565b6000819050602082019050919050565b611a5d8161173f565b82525050565b6000611a6f8383611a54565b60208301905092915050565b6000602082019050919050565b6000611a9382611a28565b611a9d8185611a33565b9350611aa883611a44565b8060005b83811015611ad9578151611ac08882611a63565b9750611acb83611a7b565b925050600181019050611aac565b5085935050505092915050565b600060e082019050611afb600083018a611961565b8181036020830152611b0d81896119c7565b90508181036040830152611b2181886119c7565b9050611b306060830187611749565b611b3d6080830186611a00565b611b4a60a0830185611a19565b81810360c0830152611b5c8184611a88565b905098975050505050505050565b6000602082019050611b7f6000830184611a00565b92915050565b600080600060408486031215611b9e57611b9d611683565b5b6000611bac868287016118e0565b935050602084013567ffffffffffffffff811115611bcd57611bcc611688565b5b611bd98682870161169c565b92509250509250925092565b611bee8161173f565b8114611bf957600080fd5b50565b600081519050611c0b81611be5565b92915050565b600060208284031215611c2757611c26611683565b5b6000611c3584828501611bfc565b91505092915050565b7f4e487b7100000000000000000000000000000000000000000000000000000000600052601160045260246000fd5b6000611c788261173f565b9150611c838361173f565b9250828202611c918161173f565b91508282048414831517611ca857611ca7611c3e565b5b5092915050565b7f4e487b7100000000000000000000000000000000000000000000000000000000600052601260045260246000fd5b6000611ce98261173f565b9150611cf48361173f565b925082611d0457611d03611caf565b5b828204905092915050565b7f616d6f756e7430206f7220616d6f756e7431203d203000000000000000000000600082015250565b6000611d4560168361197b565b9150611d5082611d0f565b602082019050919050565b60006020820190508181036000830152611d7481611d38565b9050919050565b6000611d868261173f565b9150611d918361173f565b9250828203905081811115611da957611da8611c3e565b5b92915050565b6000604082019050611dc46000830185611a00565b611dd16020830184611749565b9392505050565b60008115159050919050565b611ded81611dd8565b8114611df857600080fd5b50565b600081519050611e0a81611de4565b92915050565b600060208284031215611e2657611e25611683565b5b6000611e3484828501611dfb565b91505092915050565b600063ffffffff82169050919050565b6000611e68611e63611e5e84611e3d565b6117a1565b61173f565b9050919050565b611e7881611e4d565b82525050565b6000606082019050611e936000830186611a00565b611ea06020830185611a00565b611ead6040830184611e6f565b949350505050565b7f78202f207920213d206478202f20647900000000000000000000000000000000600082015250565b6000611eeb60108361197b565b9150611ef682611eb5565b602082019050919050565b60006020820190508181036000830152611f1a81611ede565b9050919050565b6000611f2c82611e3d565b9150611f3783611e3d565b9250828202611f4581611e3d565b9150808214611f5757611f56611c3e565b5b5092915050565b7f736861726573203d203000000000000000000000000000000000000000000000600082015250565b6000611f94600a8361197b565b9150611f9f82611f5e565b602082019050919050565b60006020820190508181036000830152611fc381611f87565b9050919050565b7f464f5242494444454e0000000000000000000000000000000000000000000000600082015250565b600061200060098361197b565b915061200b82611fca565b602082019050919050565b6000602082019050818103600083015261202f81611ff3565b9050919050565b7f4e487b7100000000000000000000000000000000000000000000000000000000600052604160045260246000fd5b7f696e76616c696420746f6b656e00000000000000000000000000000000000000600082015250565b600061209b600d8361197b565b91506120a682612065565b602082019050919050565b600060208201905081810360008301526120ca8161208e565b9050919050565b7f616d6f756e7420696e203d203000000000000000000000000000000000000000600082015250565b6000612107600d8361197b565b9150612112826120d1565b602082019050919050565b60006020820190508181036000830152612136816120fa565b9050919050565b60006060820190506121526000830186611a00565b61215f6020830185611a00565b61216c6040830184611749565b949350505050565b600061217f82611e3d565b915061218a83611e3d565b92508261219a57612199611caf565b5b828204905092915050565b60006121b08261173f565b91506121bb8361173f565b92508282019050808211156121d3576121d2611c3e565b5b92915050565b7f4e487b7100000000000000000000000000000000000000000000000000000000600052602260045260246000fd5b6000600282049050600182168061222057607f821691505b602082108103612233576122326121d9565b5b50919050565b600081519050919050565b600081905092915050565b600061225a82612239565b6122648185612244565b935061227481856020860161198c565b80840191505092915050565b6000819050919050565b61229b61229682611935565b612280565b82525050565b60006122ad828561224f565b91506122b9828461228a565b6001820191508190509392505050565b600082825260208201905092915050565b60006122e582612239565b6122ef81856122c9565b93506122ff81856020860161198c565b612308816119b6565b840191505092915050565b6000602082019050818103600083015261232d81846122da565b90509291505056fea2646970667358221220d240901ba0f47e0695b8f049b4d162fcfd30cb56aef700ccaaed3db84722222664736f6c63430008130033",
  "devdoc": {
    "events": {
      "EIP712DomainChanged()": {
        "details": "MAY be emitted to signal that the domain could have changed."
      }
    },
    "kind": "dev",
    "methods": {
      "eip712Domain()": {
        "details": "See {EIP-5267}. _Available since v4.9._"
      }
    },
    "version": 1
  },
  "userdoc": {
    "kind": "user",
    "methods": {},
    "version": 1
  },
  "storageLayout": {
    "storage": [
      {
        "astId": 978,
        "contract": "contracts/Encryptedpair.sol:Pair",
        "label": "_nameFallback",
        "offset": 0,
        "slot": "0",
        "type": "t_string_storage"
      },
      {
        "astId": 980,
        "contract": "contracts/Encryptedpair.sol:Pair",
        "label": "_versionFallback",
        "offset": 0,
        "slot": "1",
        "type": "t_string_storage"
      },
      {
        "astId": 2130,
        "contract": "contracts/Encryptedpair.sol:Pair",
        "label": "token0",
        "offset": 0,
        "slot": "2",
        "type": "t_contract(IERC20)2907"
      },
      {
        "astId": 2133,
        "contract": "contracts/Encryptedpair.sol:Pair",
        "label": "token1",
        "offset": 0,
        "slot": "3",
        "type": "t_contract(IERC20)2907"
      },
      {
        "astId": 2137,
        "contract": "contracts/Encryptedpair.sol:Pair",
        "label": "reserve0",
        "offset": 0,
        "slot": "4",
        "type": "t_uint256"
      },
      {
        "astId": 2139,
        "contract": "contracts/Encryptedpair.sol:Pair",
        "label": "reserve1",
        "offset": 0,
        "slot": "5",
        "type": "t_uint256"
      },
      {
        "astId": 2141,
        "contract": "contracts/Encryptedpair.sol:Pair",
        "label": "totalSupply",
        "offset": 0,
        "slot": "6",
        "type": "t_uint256"
      },
      {
        "astId": 2145,
        "contract": "contracts/Encryptedpair.sol:Pair",
        "label": "balanceOf",
        "offset": 0,
        "slot": "7",
        "type": "t_mapping(t_address,t_uint256)"
      }
    ],
    "types": {
      "t_address": {
        "encoding": "inplace",
        "label": "address",
        "numberOfBytes": "20"
      },
      "t_contract(IERC20)2907": {
        "encoding": "inplace",
        "label": "contract IERC20",
        "numberOfBytes": "20"
      },
      "t_mapping(t_address,t_uint256)": {
        "encoding": "mapping",
        "key": "t_address",
        "label": "mapping(address => uint256)",
        "numberOfBytes": "32",
        "value": "t_uint256"
      },
      "t_string_storage": {
        "encoding": "bytes",
        "label": "string",
        "numberOfBytes": "32"
      },
      "t_uint256": {
        "encoding": "inplace",
        "label": "uint256",
        "numberOfBytes": "32"
      }
    }
  }
}